{
    "abi": [
        {
            "type": "constructor",
            "inputs": [
                {
                    "name": "_bettingTokenAddress",
                    "type": "address",
                    "internalType": "address"
                },
                {
                    "name": "_name",
                    "type": "string",
                    "internalType": "string"
                },
                {
                    "name": "_symbol",
                    "type": "string",
                    "internalType": "string"
                }
            ],
            "stateMutability": "nonpayable"
        },
        {
            "type": "function",
            "name": "MINIMUM_LIQUIDITY",
            "inputs": [],
            "outputs": [
                {
                    "name": "",
                    "type": "uint256",
                    "internalType": "uint256"
                }
            ],
            "stateMutability": "view"
        },
        {
            "type": "function",
            "name": "acceptBet",
            "inputs": [
                {
                    "name": "player",
                    "type": "address",
                    "internalType": "address"
                },
                {
                    "name": "amount",
                    "type": "uint256",
                    "internalType": "uint256"
                }
            ],
            "outputs": [],
            "stateMutability": "nonpayable"
        },
        {
            "type": "function",
            "name": "allowance",
            "inputs": [
                {
                    "name": "owner",
                    "type": "address",
                    "internalType": "address"
                },
                {
                    "name": "spender",
                    "type": "address",
                    "internalType": "address"
                }
            ],
            "outputs": [
                {
                    "name": "",
                    "type": "uint256",
                    "internalType": "uint256"
                }
            ],
            "stateMutability": "view"
        },
        {
            "type": "function",
            "name": "approve",
            "inputs": [
                {
                    "name": "spender",
                    "type": "address",
                    "internalType": "address"
                },
                {
                    "name": "value",
                    "type": "uint256",
                    "internalType": "uint256"
                }
            ],
            "outputs": [
                {
                    "name": "",
                    "type": "bool",
                    "internalType": "bool"
                }
            ],
            "stateMutability": "nonpayable"
        },
        {
            "type": "function",
            "name": "authorizedGames",
            "inputs": [
                {
                    "name": "",
                    "type": "address",
                    "internalType": "address"
                }
            ],
            "outputs": [
                {
                    "name": "",
                    "type": "bool",
                    "internalType": "bool"
                }
            ],
            "stateMutability": "view"
        },
        {
            "type": "function",
            "name": "authorizedLpStakers",
            "inputs": [
                {
                    "name": "",
                    "type": "address",
                    "internalType": "address"
                }
            ],
            "outputs": [
                {
                    "name": "",
                    "type": "bool",
                    "internalType": "bool"
                }
            ],
            "stateMutability": "view"
        },
        {
            "type": "function",
            "name": "balanceOf",
            "inputs": [
                {
                    "name": "account",
                    "type": "address",
                    "internalType": "address"
                }
            ],
            "outputs": [
                {
                    "name": "",
                    "type": "uint256",
                    "internalType": "uint256"
                }
            ],
            "stateMutability": "view"
        },
        {
            "type": "function",
            "name": "bettingToken",
            "inputs": [],
            "outputs": [
                {
                    "name": "",
                    "type": "address",
                    "internalType": "contract IERC20"
                }
            ],
            "stateMutability": "view"
        },
        {
            "type": "function",
            "name": "canCoverPayout",
            "inputs": [
                {
                    "name": "maxPayout",
                    "type": "uint256",
                    "internalType": "uint256"
                }
            ],
            "outputs": [
                {
                    "name": "",
                    "type": "bool",
                    "internalType": "bool"
                }
            ],
            "stateMutability": "view"
        },
        {
            "type": "function",
            "name": "canStake",
            "inputs": [
                {
                    "name": "amount",
                    "type": "uint256",
                    "internalType": "uint256"
                }
            ],
            "outputs": [
                {
                    "name": "allowed",
                    "type": "bool",
                    "internalType": "bool"
                },
                {
                    "name": "reason",
                    "type": "string",
                    "internalType": "string"
                }
            ],
            "stateMutability": "view"
        },
        {
            "type": "function",
            "name": "decimals",
            "inputs": [],
            "outputs": [
                {
                    "name": "",
                    "type": "uint8",
                    "internalType": "uint8"
                }
            ],
            "stateMutability": "view"
        },
        {
            "type": "function",
            "name": "getCasinoAnalytics",
            "inputs": [],
            "outputs": [
                {
                    "name": "totalInflows",
                    "type": "uint256",
                    "internalType": "uint256"
                },
                {
                    "name": "totalOutflows",
                    "type": "uint256",
                    "internalType": "uint256"
                },
                {
                    "name": "netProfit",
                    "type": "uint256",
                    "internalType": "uint256"
                },
                {
                    "name": "totalBetVolume",
                    "type": "uint256",
                    "internalType": "uint256"
                }
            ],
            "stateMutability": "view"
        },
        {
            "type": "function",
            "name": "getExchangeRate",
            "inputs": [],
            "outputs": [
                {
                    "name": "",
                    "type": "uint256",
                    "internalType": "uint256"
                }
            ],
            "stateMutability": "view"
        },
        {
            "type": "function",
            "name": "getTotalPoolValue",
            "inputs": [],
            "outputs": [
                {
                    "name": "",
                    "type": "uint256",
                    "internalType": "uint256"
                }
            ],
            "stateMutability": "view"
        },
        {
            "type": "function",
            "name": "getTvlInfo",
            "inputs": [],
            "outputs": [
                {
                    "name": "currentTvl",
                    "type": "uint256",
                    "internalType": "uint256"
                },
                {
                    "name": "maxTvlValue",
                    "type": "uint256",
                    "internalType": "uint256"
                },
                {
                    "name": "remainingCapacity",
                    "type": "uint256",
                    "internalType": "uint256"
                }
            ],
            "stateMutability": "view"
        },
        {
            "type": "function",
            "name": "lpStakingRestricted",
            "inputs": [],
            "outputs": [
                {
                    "name": "",
                    "type": "bool",
                    "internalType": "bool"
                }
            ],
            "stateMutability": "view"
        },
        {
            "type": "function",
            "name": "maxTvl",
            "inputs": [],
            "outputs": [
                {
                    "name": "",
                    "type": "uint256",
                    "internalType": "uint256"
                }
            ],
            "stateMutability": "view"
        },
        {
            "type": "function",
            "name": "name",
            "inputs": [],
            "outputs": [
                {
                    "name": "",
                    "type": "string",
                    "internalType": "string"
                }
            ],
            "stateMutability": "view"
        },
        {
            "type": "function",
            "name": "owner",
            "inputs": [],
            "outputs": [
                {
                    "name": "",
                    "type": "address",
                    "internalType": "address"
                }
            ],
            "stateMutability": "view"
        },
        {
            "type": "function",
            "name": "previewRedeem",
            "inputs": [
                {
                    "name": "lpTokenAmount",
                    "type": "uint256",
                    "internalType": "uint256"
                }
            ],
            "outputs": [
                {
                    "name": "",
                    "type": "uint256",
                    "internalType": "uint256"
                }
            ],
            "stateMutability": "view"
        },
        {
            "type": "function",
            "name": "previewStake",
            "inputs": [
                {
                    "name": "amount",
                    "type": "uint256",
                    "internalType": "uint256"
                }
            ],
            "outputs": [
                {
                    "name": "",
                    "type": "uint256",
                    "internalType": "uint256"
                }
            ],
            "stateMutability": "view"
        },
        {
            "type": "function",
            "name": "redeem",
            "inputs": [
                {
                    "name": "lpTokenAmount",
                    "type": "uint256",
                    "internalType": "uint256"
                }
            ],
            "outputs": [],
            "stateMutability": "nonpayable"
        },
        {
            "type": "function",
            "name": "renounceOwnership",
            "inputs": [],
            "outputs": [],
            "stateMutability": "nonpayable"
        },
        {
            "type": "function",
            "name": "requestPayout",
            "inputs": [
                {
                    "name": "winner",
                    "type": "address",
                    "internalType": "address"
                },
                {
                    "name": "amount",
                    "type": "uint256",
                    "internalType": "uint256"
                }
            ],
            "outputs": [],
            "stateMutability": "nonpayable"
        },
        {
            "type": "function",
            "name": "rescueToken",
            "inputs": [
                {
                    "name": "tokenAddress",
                    "type": "address",
                    "internalType": "address"
                },
                {
                    "name": "amount",
                    "type": "uint256",
                    "internalType": "uint256"
                }
            ],
            "outputs": [],
            "stateMutability": "nonpayable"
        },
        {
            "type": "function",
            "name": "setGameAuthorization",
            "inputs": [
                {
                    "name": "game",
                    "type": "address",
                    "internalType": "address"
                },
                {
                    "name": "authorized",
                    "type": "bool",
                    "internalType": "bool"
                }
            ],
            "outputs": [],
            "stateMutability": "nonpayable"
        },
        {
            "type": "function",
            "name": "setLpStakerAuthorization",
            "inputs": [
                {
                    "name": "staker",
                    "type": "address",
                    "internalType": "address"
                },
                {
                    "name": "authorized",
                    "type": "bool",
                    "internalType": "bool"
                }
            ],
            "outputs": [],
            "stateMutability": "nonpayable"
        },
        {
            "type": "function",
            "name": "setMaxTvl",
            "inputs": [
                {
                    "name": "newMaxTvl",
                    "type": "uint256",
                    "internalType": "uint256"
                }
            ],
            "outputs": [],
            "stateMutability": "nonpayable"
        },
        {
            "type": "function",
            "name": "stake",
            "inputs": [
                {
                    "name": "amount",
                    "type": "uint256",
                    "internalType": "uint256"
                }
            ],
            "outputs": [],
            "stateMutability": "nonpayable"
        },
        {
            "type": "function",
            "name": "symbol",
            "inputs": [],
            "outputs": [
                {
                    "name": "",
                    "type": "string",
                    "internalType": "string"
                }
            ],
            "stateMutability": "view"
        },
        {
            "type": "function",
            "name": "toggleLpStakingRestriction",
            "inputs": [],
            "outputs": [],
            "stateMutability": "nonpayable"
        },
        {
            "type": "function",
            "name": "totalCasinoBetVolume",
            "inputs": [],
            "outputs": [
                {
                    "name": "",
                    "type": "uint256",
                    "internalType": "uint256"
                }
            ],
            "stateMutability": "view"
        },
        {
            "type": "function",
            "name": "totalCasinoInflows",
            "inputs": [],
            "outputs": [
                {
                    "name": "",
                    "type": "uint256",
                    "internalType": "uint256"
                }
            ],
            "stateMutability": "view"
        },
        {
            "type": "function",
            "name": "totalCasinoOutflows",
            "inputs": [],
            "outputs": [
                {
                    "name": "",
                    "type": "uint256",
                    "internalType": "uint256"
                }
            ],
            "stateMutability": "view"
        },
        {
            "type": "function",
            "name": "totalSupply",
            "inputs": [],
            "outputs": [
                {
                    "name": "",
                    "type": "uint256",
                    "internalType": "uint256"
                }
            ],
            "stateMutability": "view"
        },
        {
            "type": "function",
            "name": "transfer",
            "inputs": [
                {
                    "name": "to",
                    "type": "address",
                    "internalType": "address"
                },
                {
                    "name": "value",
                    "type": "uint256",
                    "internalType": "uint256"
                }
            ],
            "outputs": [
                {
                    "name": "",
                    "type": "bool",
                    "internalType": "bool"
                }
            ],
            "stateMutability": "nonpayable"
        },
        {
            "type": "function",
            "name": "transferFrom",
            "inputs": [
                {
                    "name": "from",
                    "type": "address",
                    "internalType": "address"
                },
                {
                    "name": "to",
                    "type": "address",
                    "internalType": "address"
                },
                {
                    "name": "value",
                    "type": "uint256",
                    "internalType": "uint256"
                }
            ],
            "outputs": [
                {
                    "name": "",
                    "type": "bool",
                    "internalType": "bool"
                }
            ],
            "stateMutability": "nonpayable"
        },
        {
            "type": "function",
            "name": "transferOwnership",
            "inputs": [
                {
                    "name": "newOwner",
                    "type": "address",
                    "internalType": "address"
                }
            ],
            "outputs": [],
            "stateMutability": "nonpayable"
        },
        {
            "type": "event",
            "name": "Approval",
            "inputs": [
                {
                    "name": "owner",
                    "type": "address",
                    "indexed": true,
                    "internalType": "address"
                },
                {
                    "name": "spender",
                    "type": "address",
                    "indexed": true,
                    "internalType": "address"
                },
                {
                    "name": "value",
                    "type": "uint256",
                    "indexed": false,
                    "internalType": "uint256"
                }
            ],
            "anonymous": false
        },
        {
            "type": "event",
            "name": "GameAuthorized",
            "inputs": [
                {
                    "name": "game",
                    "type": "address",
                    "indexed": true,
                    "internalType": "address"
                },
                {
                    "name": "authorized",
                    "type": "bool",
                    "indexed": false,
                    "internalType": "bool"
                }
            ],
            "anonymous": false
        },
        {
            "type": "event",
            "name": "GameInflow",
            "inputs": [
                {
                    "name": "game",
                    "type": "address",
                    "indexed": true,
                    "internalType": "address"
                },
                {
                    "name": "amount",
                    "type": "uint256",
                    "indexed": false,
                    "internalType": "uint256"
                }
            ],
            "anonymous": false
        },
        {
            "type": "event",
            "name": "GamePayout",
            "inputs": [
                {
                    "name": "game",
                    "type": "address",
                    "indexed": true,
                    "internalType": "address"
                },
                {
                    "name": "winner",
                    "type": "address",
                    "indexed": true,
                    "internalType": "address"
                },
                {
                    "name": "amount",
                    "type": "uint256",
                    "indexed": false,
                    "internalType": "uint256"
                }
            ],
            "anonymous": false
        },
        {
            "type": "event",
            "name": "LpStakerAuthorized",
            "inputs": [
                {
                    "name": "staker",
                    "type": "address",
                    "indexed": true,
                    "internalType": "address"
                },
                {
                    "name": "authorized",
                    "type": "bool",
                    "indexed": false,
                    "internalType": "bool"
                }
            ],
            "anonymous": false
        },
        {
            "type": "event",
            "name": "LpStakingRestrictionToggled",
            "inputs": [
                {
                    "name": "restricted",
                    "type": "bool",
                    "indexed": false,
                    "internalType": "bool"
                }
            ],
            "anonymous": false
        },
        {
            "type": "event",
            "name": "MaxTvlUpdated",
            "inputs": [
                {
                    "name": "oldMaxTvl",
                    "type": "uint256",
                    "indexed": false,
                    "internalType": "uint256"
                },
                {
                    "name": "newMaxTvl",
                    "type": "uint256",
                    "indexed": false,
                    "internalType": "uint256"
                }
            ],
            "anonymous": false
        },
        {
            "type": "event",
            "name": "OwnershipTransferred",
            "inputs": [
                {
                    "name": "previousOwner",
                    "type": "address",
                    "indexed": true,
                    "internalType": "address"
                },
                {
                    "name": "newOwner",
                    "type": "address",
                    "indexed": true,
                    "internalType": "address"
                }
            ],
            "anonymous": false
        },
        {
            "type": "event",
            "name": "Redeemed",
            "inputs": [
                {
                    "name": "user",
                    "type": "address",
                    "indexed": true,
                    "internalType": "address"
                },
                {
                    "name": "lpTokensRedeemed",
                    "type": "uint256",
                    "indexed": false,
                    "internalType": "uint256"
                },
                {
                    "name": "tokenAmount",
                    "type": "uint256",
                    "indexed": false,
                    "internalType": "uint256"
                }
            ],
            "anonymous": false
        },
        {
            "type": "event",
            "name": "Staked",
            "inputs": [
                {
                    "name": "user",
                    "type": "address",
                    "indexed": true,
                    "internalType": "address"
                },
                {
                    "name": "tokenAmount",
                    "type": "uint256",
                    "indexed": false,
                    "internalType": "uint256"
                },
                {
                    "name": "lpTokensIssued",
                    "type": "uint256",
                    "indexed": false,
                    "internalType": "uint256"
                }
            ],
            "anonymous": false
        },
        {
            "type": "event",
            "name": "Transfer",
            "inputs": [
                {
                    "name": "from",
                    "type": "address",
                    "indexed": true,
                    "internalType": "address"
                },
                {
                    "name": "to",
                    "type": "address",
                    "indexed": true,
                    "internalType": "address"
                },
                {
                    "name": "value",
                    "type": "uint256",
                    "indexed": false,
                    "internalType": "uint256"
                }
            ],
            "anonymous": false
        },
        {
            "type": "error",
            "name": "ERC20InsufficientAllowance",
            "inputs": [
                {
                    "name": "spender",
                    "type": "address",
                    "internalType": "address"
                },
                {
                    "name": "allowance",
                    "type": "uint256",
                    "internalType": "uint256"
                },
                {
                    "name": "needed",
                    "type": "uint256",
                    "internalType": "uint256"
                }
            ]
        },
        {
            "type": "error",
            "name": "ERC20InsufficientBalance",
            "inputs": [
                {
                    "name": "sender",
                    "type": "address",
                    "internalType": "address"
                },
                {
                    "name": "balance",
                    "type": "uint256",
                    "internalType": "uint256"
                },
                {
                    "name": "needed",
                    "type": "uint256",
                    "internalType": "uint256"
                }
            ]
        },
        {
            "type": "error",
            "name": "ERC20InvalidApprover",
            "inputs": [
                {
                    "name": "approver",
                    "type": "address",
                    "internalType": "address"
                }
            ]
        },
        {
            "type": "error",
            "name": "ERC20InvalidReceiver",
            "inputs": [
                {
                    "name": "receiver",
                    "type": "address",
                    "internalType": "address"
                }
            ]
        },
        {
            "type": "error",
            "name": "ERC20InvalidSender",
            "inputs": [
                {
                    "name": "sender",
                    "type": "address",
                    "internalType": "address"
                }
            ]
        },
        {
            "type": "error",
            "name": "ERC20InvalidSpender",
            "inputs": [
                {
                    "name": "spender",
                    "type": "address",
                    "internalType": "address"
                }
            ]
        },
        {
            "type": "error",
            "name": "OwnableInvalidOwner",
            "inputs": [
                {
                    "name": "owner",
                    "type": "address",
                    "internalType": "address"
                }
            ]
        },
        {
            "type": "error",
            "name": "OwnableUnauthorizedAccount",
            "inputs": [
                {
                    "name": "account",
                    "type": "address",
                    "internalType": "address"
                }
            ]
        }
    ],
    "bytecode": {
        "object": "0x60a060405234801561000f575f5ffd5b50604051613e4b380380613e4b83398181016040528101906100319190610412565b338282816003908161004391906106aa565b50806004908161005391906106aa565b5050505f73ffffffffffffffffffffffffffffffffffffffff168173ffffffffffffffffffffffffffffffffffffffff16036100c6575f6040517f1e4fbdf70000000000000000000000000000000000000000000000000000000081526004016100bd9190610788565b60405180910390fd5b6100d5816101a860201b60201c565b508273ffffffffffffffffffffffffffffffffffffffff1660808173ffffffffffffffffffffffffffffffffffffffff1681525050600160075f6101000a81548160ff021916908315150217905550600160085f3373ffffffffffffffffffffffffffffffffffffffff1673ffffffffffffffffffffffffffffffffffffffff1681526020019081526020015f205f6101000a81548160ff0219169083151502179055507fffffffffffffffffffffffffffffffffffffffffffffffffffffffffffffffff6009819055505050506107a1565b5f60055f9054906101000a900473ffffffffffffffffffffffffffffffffffffffff1690508160055f6101000a81548173ffffffffffffffffffffffffffffffffffffffff021916908373ffffffffffffffffffffffffffffffffffffffff1602179055508173ffffffffffffffffffffffffffffffffffffffff168173ffffffffffffffffffffffffffffffffffffffff167f8be0079c531659141344cd1fd0a4f28419497f9722a3daafe3b4186f6b6457e060405160405180910390a35050565b5f604051905090565b5f5ffd5b5f5ffd5b5f73ffffffffffffffffffffffffffffffffffffffff82169050919050565b5f6102a58261027c565b9050919050565b6102b58161029b565b81146102bf575f5ffd5b50565b5f815190506102d0816102ac565b92915050565b5f5ffd5b5f5ffd5b5f601f19601f8301169050919050565b7f4e487b71000000000000000000000000000000000000000000000000000000005f52604160045260245ffd5b610324826102de565b810181811067ffffffffffffffff82111715610343576103426102ee565b5b80604052505050565b5f61035561026b565b9050610361828261031b565b919050565b5f67ffffffffffffffff8211156103805761037f6102ee565b5b610389826102de565b9050602081019050919050565b8281835e5f83830152505050565b5f6103b66103b184610366565b61034c565b9050828152602081018484840111156103d2576103d16102da565b5b6103dd848285610396565b509392505050565b5f82601f8301126103f9576103f86102d6565b5b81516104098482602086016103a4565b91505092915050565b5f5f5f6060848603121561042957610428610274565b5b5f610436868287016102c2565b935050602084015167ffffffffffffffff81111561045757610456610278565b5b610463868287016103e5565b925050604084015167ffffffffffffffff81111561048457610483610278565b5b610490868287016103e5565b9150509250925092565b5f81519050919050565b7f4e487b71000000000000000000000000000000000000000000000000000000005f52602260045260245ffd5b5f60028204905060018216806104e857607f821691505b6020821081036104fb576104fa6104a4565b5b50919050565b5f819050815f5260205f209050919050565b5f6020601f8301049050919050565b5f82821b905092915050565b5f6008830261055d7fffffffffffffffffffffffffffffffffffffffffffffffffffffffffffffffff82610522565b6105678683610522565b95508019841693508086168417925050509392505050565b5f819050919050565b5f819050919050565b5f6105ab6105a66105a18461057f565b610588565b61057f565b9050919050565b5f819050919050565b6105c483610591565b6105d86105d0826105b2565b84845461052e565b825550505050565b5f5f905090565b6105ef6105e0565b6105fa8184846105bb565b505050565b5b8181101561061d576106125f826105e7565b600181019050610600565b5050565b601f8211156106625761063381610501565b61063c84610513565b8101602085101561064b578190505b61065f61065785610513565b8301826105ff565b50505b505050565b5f82821c905092915050565b5f6106825f1984600802610667565b1980831691505092915050565b5f61069a8383610673565b9150826002028217905092915050565b6106b38261049a565b67ffffffffffffffff8111156106cc576106cb6102ee565b5b6106d682546104d1565b6106e1828285610621565b5f60209050601f831160018114610712575f8415610700578287015190505b61070a858261068f565b865550610771565b601f19841661072086610501565b5f5b8281101561074757848901518255600182019150602085019450602081019050610722565b868310156107645784890151610760601f891682610673565b8355505b6001600288020188555050505b505050505050565b6107828161029b565b82525050565b5f60208201905061079b5f830184610779565b92915050565b60805161365a6107f15f395f818161092701528181610bfa01528181610dc101528181610e620152818161127a01528181611530015281816119b401528181611cf70152611dd4015261365a5ff3fe608060405234801561000f575f5ffd5b5060043610610230575f3560e01c80638f18368e1161012e578063c93b8434116100b6578063e5889bae1161007a578063e5889bae146106a6578063e6aa216c146106c4578063e8012eef146106e2578063ec58c6a8146106fe578063f2fde38b1461071e57610230565b8063c93b8434146105f0578063ca508d5c14610620578063cb50087f1461063e578063db006a751461065a578063dd62ed3e1461067657610230565b8063a14ed18a116100fd578063a14ed18a1461054c578063a694fc3a1461056a578063a9059cbb14610586578063ba9a7a56146105b6578063c9303738146105d457610230565b80638f18368e146104d657806395d89b41146104e05780639a1815be146104fe5780639e492b991461051c57610230565b8063423bcb9f116101bc57806370a082311161018057806370a0823114610430578063715018a614610460578063727a5d571461046a57806373a1d9e61461049a5780638da5cb5b146104b857610230565b8063423bcb9f1461036057806343425e88146103905780634cdad506146103ae57806353906653146103de578063675f3d091461040f57610230565b80631e0e7eac116102035780631e0e7eac146102bc57806323b872dd146102d85780632c5c73e814610308578063313ce5671461032657806333f3d6281461034457610230565b806306fdde0314610234578063095ea7b31461025257806310e15e641461028257806318160ddd1461029e575b5f5ffd5b61023c61073a565b6040516102499190612825565b60405180910390f35b61026c600480360381019061026791906128d6565b6107ca565b604051610279919061292e565b60405180910390f35b61029c600480360381019061029791906128d6565b6107ec565b005b6102a6610a83565b6040516102b39190612956565b60405180910390f35b6102d660048036038101906102d19190612999565b610a8c565b005b6102f260048036038101906102ed91906129d7565b610ba8565b6040516102ff919061292e565b60405180910390f35b610310610bd6565b60405161031d919061292e565b60405180910390f35b61032e610be8565b60405161033b9190612a42565b60405180910390f35b61035e600480360381019061035991906128d6565b610bf0565b005b61037a60048036038101906103759190612a5b565b610dbd565b604051610387919061292e565b60405180910390f35b610398610e60565b6040516103a59190612ae1565b60405180910390f35b6103c860048036038101906103c39190612a5b565b610e84565b6040516103d59190612956565b60405180910390f35b6103f860048036038101906103f39190612a5b565b610edc565b604051610406929190612afa565b60405180910390f35b61041761102d565b6040516104279493929190612b28565b60405180910390f35b61044a60048036038101906104459190612b6b565b611062565b6040516104579190612956565b60405180910390f35b6104686110a7565b005b610484600480360381019061047f9190612a5b565b6110ba565b6040516104919190612956565b60405180910390f35b6104a261111f565b6040516104af9190612956565b60405180910390f35b6104c0611125565b6040516104cd9190612ba5565b60405180910390f35b6104de61114d565b005b6104e86111c4565b6040516104f59190612825565b60405180910390f35b610506611254565b6040516105139190612956565b60405180910390f35b61053660048036038101906105319190612b6b565b61125a565b604051610543919061292e565b60405180910390f35b610554611277565b6040516105619190612956565b60405180910390f35b610584600480360381019061057f9190612a5b565b611315565b005b6105a0600480360381019061059b91906128d6565b61166b565b6040516105ad919061292e565b60405180910390f35b6105be61168d565b6040516105cb9190612956565b60405180910390f35b6105ee60048036038101906105e99190612999565b611693565b005b61060a60048036038101906106059190612b6b565b6117af565b604051610617919061292e565b60405180910390f35b6106286117cc565b6040516106359190612956565b60405180910390f35b61065860048036038101906106539190612a5b565b6117d2565b005b610674600480360381019061066f9190612a5b565b611866565b005b610690600480360381019061068b9190612bbe565b611ae2565b60405161069d9190612956565b60405180910390f35b6106ae611b64565b6040516106bb9190612956565b60405180910390f35b6106cc611b6a565b6040516106d99190612956565b60405180910390f35b6106fc60048036038101906106f791906128d6565b611bbb565b005b610706611f2e565b60405161071593929190612bfc565b60405180910390f35b61073860048036038101906107339190612b6b565b611f65565b005b60606003805461074990612c5e565b80601f016020809104026020016040519081016040528092919081815260200182805461077590612c5e565b80156107c05780601f10610797576101008083540402835291602001916107c0565b820191905f5260205f20905b8154815290600101906020018083116107a357829003601f168201915b5050505050905090565b5f5f6107d4611fe9565b90506107e1818585611ff0565b600191505092915050565b60065f3373ffffffffffffffffffffffffffffffffffffffff1673ffffffffffffffffffffffffffffffffffffffff1681526020019081526020015f205f9054906101000a900460ff16610875576040517f08c379a000000000000000000000000000000000000000000000000000000000815260040161086c90612cd8565b60405180910390fd5b5f81116108b7576040517f08c379a00000000000000000000000000000000000000000000000000000000081526004016108ae90612d40565b60405180910390fd5b5f73ffffffffffffffffffffffffffffffffffffffff168273ffffffffffffffffffffffffffffffffffffffff1603610925576040517f08c379a000000000000000000000000000000000000000000000000000000000815260040161091c90612da8565b60405180910390fd5b7f000000000000000000000000000000000000000000000000000000000000000073ffffffffffffffffffffffffffffffffffffffff166323b872dd8330846040518463ffffffff1660e01b815260040161098293929190612dc6565b6020604051808303815f875af115801561099e573d5f5f3e3d5ffd5b505050506040513d601f19601f820116820180604052508101906109c29190612e0f565b610a01576040517f08c379a00000000000000000000000000000000000000000000000000000000081526004016109f890612e84565b60405180910390fd5b80600c5f828254610a129190612ecf565b9250508190555080600a5f828254610a2a9190612ecf565b925050819055503373ffffffffffffffffffffffffffffffffffffffff167fafd5d2cb67171ed113d426dd615c5b7dce2774daa810c4c21b01824e532c792582604051610a779190612956565b60405180910390a25050565b5f600254905090565b610a94612002565b5f73ffffffffffffffffffffffffffffffffffffffff168273ffffffffffffffffffffffffffffffffffffffff1603610b02576040517f08c379a0000000000000000000000000000000000000000000000000000000008152600401610af990612f4c565b60405180910390fd5b8060085f8473ffffffffffffffffffffffffffffffffffffffff1673ffffffffffffffffffffffffffffffffffffffff1681526020019081526020015f205f6101000a81548160ff0219169083151502179055508173ffffffffffffffffffffffffffffffffffffffff167fd79f32678b59ad23b392460faa4383b7bc8cda48cea46e74252b43a69e9532aa82604051610b9c919061292e565b60405180910390a25050565b5f5f610bb2611fe9565b9050610bbf858285612089565b610bca85858561211c565b60019150509392505050565b60075f9054906101000a900460ff1681565b5f6012905090565b610bf8612002565b7f000000000000000000000000000000000000000000000000000000000000000073ffffffffffffffffffffffffffffffffffffffff168273ffffffffffffffffffffffffffffffffffffffff1603610c86576040517f08c379a0000000000000000000000000000000000000000000000000000000008152600401610c7d90612fb4565b60405180910390fd5b5f73ffffffffffffffffffffffffffffffffffffffff168273ffffffffffffffffffffffffffffffffffffffff1603610cf4576040517f08c379a0000000000000000000000000000000000000000000000000000000008152600401610ceb9061301c565b60405180910390fd5b5f8111610d36576040517f08c379a0000000000000000000000000000000000000000000000000000000008152600401610d2d90612d40565b60405180910390fd5b8173ffffffffffffffffffffffffffffffffffffffff1663a9059cbb610d5a611125565b836040518363ffffffff1660e01b8152600401610d7892919061303a565b6020604051808303815f875af1158015610d94573d5f5f3e3d5ffd5b505050506040513d601f19601f82011682018060405250810190610db89190612e0f565b505050565b5f817f000000000000000000000000000000000000000000000000000000000000000073ffffffffffffffffffffffffffffffffffffffff166370a08231306040518263ffffffff1660e01b8152600401610e189190612ba5565b602060405180830381865afa158015610e33573d5f5f3e3d5ffd5b505050506040513d601f19601f82011682018060405250810190610e579190613075565b10159050919050565b7f000000000000000000000000000000000000000000000000000000000000000081565b5f5f8203610e94575f9050610ed7565b5f610e9d611277565b90505f610ea8610a83565b90505f8103610ebb575f92505050610ed7565b808285610ec891906130a0565b610ed2919061310e565b925050505b919050565b5f60605f8303610f26575f6040518060400160405280601d81526020017f416d6f756e74206d7573742062652067726561746572207468616e203000000081525091509150611028565b60075f9054906101000a900460ff168015610f88575060085f3373ffffffffffffffffffffffffffffffffffffffff1673ffffffffffffffffffffffffffffffffffffffff1681526020019081526020015f205f9054906101000a900460ff16155b15610fb0575f6040518060600160405280602181526020016136046021913991509150611028565b5f610fb9611277565b90506009548482610fca9190612ecf565b1115611011575f6040518060400160405280601c81526020017f5374616b696e6720776f756c6420657863656564206d61782054564c000000008152509250925050611028565b600160405180602001604052805f81525092509250505b915091565b5f5f5f5f600a549350600b549250828411611048575f611055565b8284611054919061313e565b5b9150600c54905090919293565b5f5f5f8373ffffffffffffffffffffffffffffffffffffffff1673ffffffffffffffffffffffffffffffffffffffff1681526020019081526020015f20549050919050565b6110af612002565b6110b85f61220c565b565b5f5f82036110ca575f905061111a565b5f6110d3611277565b90505f6110de610a83565b90505f81036110fe576103e8846110f5919061313e565b9250505061111a565b81818561110b91906130a0565b611115919061310e565b925050505b919050565b600c5481565b5f60055f9054906101000a900473ffffffffffffffffffffffffffffffffffffffff16905090565b611155612002565b60075f9054906101000a900460ff161560075f6101000a81548160ff0219169083151502179055507fd3e4152b268d7cdc0e4ea8172e23efb9e29bb02b3f445bf15fd4815b313b8edb60075f9054906101000a900460ff166040516111ba919061292e565b60405180910390a1565b6060600480546111d390612c5e565b80601f01602080910402602001604051908101604052809291908181526020018280546111ff90612c5e565b801561124a5780601f106112215761010080835404028352916020019161124a565b820191905f5260205f20905b81548152906001019060200180831161122d57829003601f168201915b5050505050905090565b60095481565b6006602052805f5260405f205f915054906101000a900460ff1681565b5f7f000000000000000000000000000000000000000000000000000000000000000073ffffffffffffffffffffffffffffffffffffffff166370a08231306040518263ffffffff1660e01b81526004016112d19190612ba5565b602060405180830381865afa1580156112ec573d5f5f3e3d5ffd5b505050506040513d601f19601f820116820180604052508101906113109190613075565b905090565b5f8111611357576040517f08c379a000000000000000000000000000000000000000000000000000000000815260040161134e90612d40565b60405180910390fd5b60075f9054906101000a900460ff16156113f55760085f3373ffffffffffffffffffffffffffffffffffffffff1673ffffffffffffffffffffffffffffffffffffffff1681526020019081526020015f205f9054906101000a900460ff166113f4576040517f08c379a00000000000000000000000000000000000000000000000000000000081526004016113eb906131e1565b60405180910390fd5b5b5f6113fe611277565b9050600954828261140f9190612ecf565b1115611450576040517f08c379a000000000000000000000000000000000000000000000000000000000815260040161144790613249565b60405180910390fd5b5f611459611277565b90505f611464610a83565b90505f5f82036114d2576103e88561147c919061313e565b90505f81116114c0576040517f08c379a00000000000000000000000000000000000000000000000000000000081526004016114b7906132b1565b60405180910390fd5b6114cd60016103e86122cf565b6114ec565b8282866114df91906130a0565b6114e9919061310e565b90505b5f811161152e576040517f08c379a000000000000000000000000000000000000000000000000000000000815260040161152590613319565b60405180910390fd5b7f000000000000000000000000000000000000000000000000000000000000000073ffffffffffffffffffffffffffffffffffffffff166323b872dd3330886040518463ffffffff1660e01b815260040161158b93929190612dc6565b6020604051808303815f875af11580156115a7573d5f5f3e3d5ffd5b505050506040513d601f19601f820116820180604052508101906115cb9190612e0f565b61160a576040517f08c379a000000000000000000000000000000000000000000000000000000000815260040161160190612e84565b60405180910390fd5b61161433826122cf565b3373ffffffffffffffffffffffffffffffffffffffff167f1449c6dd7851abc30abf37f57715f492010519147cc2652fbc38202c18a6ee90868360405161165c929190613337565b60405180910390a25050505050565b5f5f611675611fe9565b905061168281858561211c565b600191505092915050565b6103e881565b61169b612002565b5f73ffffffffffffffffffffffffffffffffffffffff168273ffffffffffffffffffffffffffffffffffffffff1603611709576040517f08c379a0000000000000000000000000000000000000000000000000000000008152600401611700906133a8565b60405180910390fd5b8060065f8473ffffffffffffffffffffffffffffffffffffffff1673ffffffffffffffffffffffffffffffffffffffff1681526020019081526020015f205f6101000a81548160ff0219169083151502179055508173ffffffffffffffffffffffffffffffffffffffff167fd516aed749348a7021e9cab766a9aac5bfd476b12501d5f21bb5435ee50ede7b826040516117a3919061292e565b60405180910390a25050565b6008602052805f5260405f205f915054906101000a900460ff1681565b600b5481565b6117da612002565b5f811161181c576040517f08c379a000000000000000000000000000000000000000000000000000000000815260040161181390613410565b60405180910390fd5b5f6009549050816009819055507f8a23b15cf5bf73f13af30b5bc6e392d23c8dd1de668c8bdd83bf384c13bae7b7818360405161185a929190613337565b60405180910390a15050565b5f81116118a8576040517f08c379a000000000000000000000000000000000000000000000000000000000815260040161189f90612d40565b60405180910390fd5b806118b233611062565b10156118f3576040517f08c379a00000000000000000000000000000000000000000000000000000000081526004016118ea90613478565b60405180910390fd5b5f6118fc611277565b90505f611907610a83565b90505f81838561191791906130a0565b611921919061310e565b90505f8111611965576040517f08c379a000000000000000000000000000000000000000000000000000000000815260040161195c906134e0565b60405180910390fd5b828111156119a8576040517f08c379a000000000000000000000000000000000000000000000000000000000815260040161199f90613548565b60405180910390fd5b6119b2338561234e565b7f000000000000000000000000000000000000000000000000000000000000000073ffffffffffffffffffffffffffffffffffffffff1663a9059cbb33836040518363ffffffff1660e01b8152600401611a0d92919061303a565b6020604051808303815f875af1158015611a29573d5f5f3e3d5ffd5b505050506040513d601f19601f82011682018060405250810190611a4d9190612e0f565b611a8c576040517f08c379a0000000000000000000000000000000000000000000000000000000008152600401611a8390612e84565b60405180910390fd5b3373ffffffffffffffffffffffffffffffffffffffff167ff3a670cd3af7d64b488926880889d08a8585a138ff455227af6737339a1ec2628583604051611ad4929190613337565b60405180910390a250505050565b5f60015f8473ffffffffffffffffffffffffffffffffffffffff1673ffffffffffffffffffffffffffffffffffffffff1681526020019081526020015f205f8373ffffffffffffffffffffffffffffffffffffffff1673ffffffffffffffffffffffffffffffffffffffff1681526020019081526020015f2054905092915050565b600a5481565b5f5f611b74610a83565b90505f8103611b8e57670de0b6b3a7640000915050611bb8565b80670de0b6b3a7640000611ba0611277565b611baa91906130a0565b611bb4919061310e565b9150505b90565b60065f3373ffffffffffffffffffffffffffffffffffffffff1673ffffffffffffffffffffffffffffffffffffffff1681526020019081526020015f205f9054906101000a900460ff16611c44576040517f08c379a0000000000000000000000000000000000000000000000000000000008152600401611c3b90612cd8565b60405180910390fd5b5f8111611c86576040517f08c379a0000000000000000000000000000000000000000000000000000000008152600401611c7d90612d40565b60405180910390fd5b5f73ffffffffffffffffffffffffffffffffffffffff168273ffffffffffffffffffffffffffffffffffffffff1603611cf4576040517f08c379a0000000000000000000000000000000000000000000000000000000008152600401611ceb906135b0565b60405180910390fd5b5f7f000000000000000000000000000000000000000000000000000000000000000073ffffffffffffffffffffffffffffffffffffffff166370a08231306040518263ffffffff1660e01b8152600401611d4e9190612ba5565b602060405180830381865afa158015611d69573d5f5f3e3d5ffd5b505050506040513d601f19601f82011682018060405250810190611d8d9190613075565b905081811015611dd2576040517f08c379a0000000000000000000000000000000000000000000000000000000008152600401611dc990613548565b60405180910390fd5b7f000000000000000000000000000000000000000000000000000000000000000073ffffffffffffffffffffffffffffffffffffffff1663a9059cbb84846040518363ffffffff1660e01b8152600401611e2d92919061303a565b6020604051808303815f875af1158015611e49573d5f5f3e3d5ffd5b505050506040513d601f19601f82011682018060405250810190611e6d9190612e0f565b611eac576040517f08c379a0000000000000000000000000000000000000000000000000000000008152600401611ea390612e84565b60405180910390fd5b81600b5f828254611ebd9190612ecf565b925050819055508273ffffffffffffffffffffffffffffffffffffffff163373ffffffffffffffffffffffffffffffffffffffff167f9d8cc304e5e8126791410e5dd68149dcb25187cded808fb399c67798a906962584604051611f219190612956565b60405180910390a3505050565b5f5f5f611f39611277565b925060095491506009548310611f4f575f611f5e565b82600954611f5d919061313e565b5b9050909192565b611f6d612002565b5f73ffffffffffffffffffffffffffffffffffffffff168173ffffffffffffffffffffffffffffffffffffffff1603611fdd575f6040517f1e4fbdf7000000000000000000000000000000000000000000000000000000008152600401611fd49190612ba5565b60405180910390fd5b611fe68161220c565b50565b5f33905090565b611ffd83838360016123cd565b505050565b61200a611fe9565b73ffffffffffffffffffffffffffffffffffffffff16612028611125565b73ffffffffffffffffffffffffffffffffffffffff16146120875761204b611fe9565b6040517f118cdaa700000000000000000000000000000000000000000000000000000000815260040161207e9190612ba5565b60405180910390fd5b565b5f6120948484611ae2565b90507fffffffffffffffffffffffffffffffffffffffffffffffffffffffffffffffff8110156121165781811015612107578281836040517ffb8f41b20000000000000000000000000000000000000000000000000000000081526004016120fe939291906135ce565b60405180910390fd5b61211584848484035f6123cd565b5b50505050565b5f73ffffffffffffffffffffffffffffffffffffffff168373ffffffffffffffffffffffffffffffffffffffff160361218c575f6040517f96c6fd1e0000000000000000000000000000000000000000000000000000000081526004016121839190612ba5565b60405180910390fd5b5f73ffffffffffffffffffffffffffffffffffffffff168273ffffffffffffffffffffffffffffffffffffffff16036121fc575f6040517fec442f050000000000000000000000000000000000000000000000000000000081526004016121f39190612ba5565b60405180910390fd5b61220783838361259c565b505050565b5f60055f9054906101000a900473ffffffffffffffffffffffffffffffffffffffff1690508160055f6101000a81548173ffffffffffffffffffffffffffffffffffffffff021916908373ffffffffffffffffffffffffffffffffffffffff1602179055508173ffffffffffffffffffffffffffffffffffffffff168173ffffffffffffffffffffffffffffffffffffffff167f8be0079c531659141344cd1fd0a4f28419497f9722a3daafe3b4186f6b6457e060405160405180910390a35050565b5f73ffffffffffffffffffffffffffffffffffffffff168273ffffffffffffffffffffffffffffffffffffffff160361233f575f6040517fec442f050000000000000000000000000000000000000000000000000000000081526004016123369190612ba5565b60405180910390fd5b61234a5f838361259c565b5050565b5f73ffffffffffffffffffffffffffffffffffffffff168273ffffffffffffffffffffffffffffffffffffffff16036123be575f6040517f96c6fd1e0000000000000000000000000000000000000000000000000000000081526004016123b59190612ba5565b60405180910390fd5b6123c9825f8361259c565b5050565b5f73ffffffffffffffffffffffffffffffffffffffff168473ffffffffffffffffffffffffffffffffffffffff160361243d575f6040517fe602df050000000000000000000000000000000000000000000000000000000081526004016124349190612ba5565b60405180910390fd5b5f73ffffffffffffffffffffffffffffffffffffffff168373ffffffffffffffffffffffffffffffffffffffff16036124ad575f6040517f94280d620000000000000000000000000000000000000000000000000000000081526004016124a49190612ba5565b60405180910390fd5b8160015f8673ffffffffffffffffffffffffffffffffffffffff1673ffffffffffffffffffffffffffffffffffffffff1681526020019081526020015f205f8573ffffffffffffffffffffffffffffffffffffffff1673ffffffffffffffffffffffffffffffffffffffff1681526020019081526020015f20819055508015612596578273ffffffffffffffffffffffffffffffffffffffff168473ffffffffffffffffffffffffffffffffffffffff167f8c5be1e5ebec7d5bd14f71427d1e84f3dd0314c0f7b2291e5b200ac8c7c3b9258460405161258d9190612956565b60405180910390a35b50505050565b5f73ffffffffffffffffffffffffffffffffffffffff168373ffffffffffffffffffffffffffffffffffffffff16036125ec578060025f8282546125e09190612ecf565b925050819055506126ba565b5f5f5f8573ffffffffffffffffffffffffffffffffffffffff1673ffffffffffffffffffffffffffffffffffffffff1681526020019081526020015f2054905081811015612675578381836040517fe450d38c00000000000000000000000000000000000000000000000000000000815260040161266c939291906135ce565b60405180910390fd5b8181035f5f8673ffffffffffffffffffffffffffffffffffffffff1673ffffffffffffffffffffffffffffffffffffffff1681526020019081526020015f2081905550505b5f73ffffffffffffffffffffffffffffffffffffffff168273ffffffffffffffffffffffffffffffffffffffff1603612701578060025f828254039250508190555061274b565b805f5f8473ffffffffffffffffffffffffffffffffffffffff1673ffffffffffffffffffffffffffffffffffffffff1681526020019081526020015f205f82825401925050819055505b8173ffffffffffffffffffffffffffffffffffffffff168373ffffffffffffffffffffffffffffffffffffffff167fddf252ad1be2c89b69c2b068fc378daa952ba7f163c4a11628f55a4df523b3ef836040516127a89190612956565b60405180910390a3505050565b5f81519050919050565b5f82825260208201905092915050565b8281835e5f83830152505050565b5f601f19601f8301169050919050565b5f6127f7826127b5565b61280181856127bf565b93506128118185602086016127cf565b61281a816127dd565b840191505092915050565b5f6020820190508181035f83015261283d81846127ed565b905092915050565b5f5ffd5b5f73ffffffffffffffffffffffffffffffffffffffff82169050919050565b5f61287282612849565b9050919050565b61288281612868565b811461288c575f5ffd5b50565b5f8135905061289d81612879565b92915050565b5f819050919050565b6128b5816128a3565b81146128bf575f5ffd5b50565b5f813590506128d0816128ac565b92915050565b5f5f604083850312156128ec576128eb612845565b5b5f6128f98582860161288f565b925050602061290a858286016128c2565b9150509250929050565b5f8115159050919050565b61292881612914565b82525050565b5f6020820190506129415f83018461291f565b92915050565b612950816128a3565b82525050565b5f6020820190506129695f830184612947565b92915050565b61297881612914565b8114612982575f5ffd5b50565b5f813590506129938161296f565b92915050565b5f5f604083850312156129af576129ae612845565b5b5f6129bc8582860161288f565b92505060206129cd85828601612985565b9150509250929050565b5f5f5f606084860312156129ee576129ed612845565b5b5f6129fb8682870161288f565b9350506020612a0c8682870161288f565b9250506040612a1d868287016128c2565b9150509250925092565b5f60ff82169050919050565b612a3c81612a27565b82525050565b5f602082019050612a555f830184612a33565b92915050565b5f60208284031215612a7057612a6f612845565b5b5f612a7d848285016128c2565b91505092915050565b5f819050919050565b5f612aa9612aa4612a9f84612849565b612a86565b612849565b9050919050565b5f612aba82612a8f565b9050919050565b5f612acb82612ab0565b9050919050565b612adb81612ac1565b82525050565b5f602082019050612af45f830184612ad2565b92915050565b5f604082019050612b0d5f83018561291f565b8181036020830152612b1f81846127ed565b90509392505050565b5f608082019050612b3b5f830187612947565b612b486020830186612947565b612b556040830185612947565b612b626060830184612947565b95945050505050565b5f60208284031215612b8057612b7f612845565b5b5f612b8d8482850161288f565b91505092915050565b612b9f81612868565b82525050565b5f602082019050612bb85f830184612b96565b92915050565b5f5f60408385031215612bd457612bd3612845565b5b5f612be18582860161288f565b9250506020612bf28582860161288f565b9150509250929050565b5f606082019050612c0f5f830186612947565b612c1c6020830185612947565b612c296040830184612947565b949350505050565b7f4e487b71000000000000000000000000000000000000000000000000000000005f52602260045260245ffd5b5f6002820490506001821680612c7557607f821691505b602082108103612c8857612c87612c31565b5b50919050565b7f556e617574686f72697a65642067616d650000000000000000000000000000005f82015250565b5f612cc26011836127bf565b9150612ccd82612c8e565b602082019050919050565b5f6020820190508181035f830152612cef81612cb6565b9050919050565b7f416d6f756e74206d7573742062652067726561746572207468616e20300000005f82015250565b5f612d2a601d836127bf565b9150612d3582612cf6565b602082019050919050565b5f6020820190508181035f830152612d5781612d1e565b9050919050565b7f496e76616c696420706c617965722061646472657373000000000000000000005f82015250565b5f612d926016836127bf565b9150612d9d82612d5e565b602082019050919050565b5f6020820190508181035f830152612dbf81612d86565b9050919050565b5f606082019050612dd95f830186612b96565b612de66020830185612b96565b612df36040830184612947565b949350505050565b5f81519050612e098161296f565b92915050565b5f60208284031215612e2457612e23612845565b5b5f612e3184828501612dfb565b91505092915050565b7f5472616e73666572206661696c656400000000000000000000000000000000005f82015250565b5f612e6e600f836127bf565b9150612e7982612e3a565b602082019050919050565b5f6020820190508181035f830152612e9b81612e62565b9050919050565b7f4e487b71000000000000000000000000000000000000000000000000000000005f52601160045260245ffd5b5f612ed9826128a3565b9150612ee4836128a3565b9250828201905080821115612efc57612efb612ea2565b5b92915050565b7f496e76616c6964207374616b65722061646472657373000000000000000000005f82015250565b5f612f366016836127bf565b9150612f4182612f02565b602082019050919050565b5f6020820190508181035f830152612f6381612f2a565b9050919050565b7f43616e6e6f74207265736375652062657474696e6720746f6b656e00000000005f82015250565b5f612f9e601b836127bf565b9150612fa982612f6a565b602082019050919050565b5f6020820190508181035f830152612fcb81612f92565b9050919050565b7f496e76616c696420746f6b656e206164647265737300000000000000000000005f82015250565b5f6130066015836127bf565b915061301182612fd2565b602082019050919050565b5f6020820190508181035f83015261303381612ffa565b9050919050565b5f60408201905061304d5f830185612b96565b61305a6020830184612947565b9392505050565b5f8151905061306f816128ac565b92915050565b5f6020828403121561308a57613089612845565b5b5f61309784828501613061565b91505092915050565b5f6130aa826128a3565b91506130b5836128a3565b92508282026130c3816128a3565b915082820484148315176130da576130d9612ea2565b5b5092915050565b7f4e487b71000000000000000000000000000000000000000000000000000000005f52601260045260245ffd5b5f613118826128a3565b9150613123836128a3565b925082613133576131326130e1565b5b828204905092915050565b5f613148826128a3565b9150613153836128a3565b925082820390508181111561316b5761316a612ea2565b5b92915050565b7f4e6f7420617574686f72697a656420746f207374616b65204c5020746f6b656e5f8201527f7300000000000000000000000000000000000000000000000000000000000000602082015250565b5f6131cb6021836127bf565b91506131d682613171565b604082019050919050565b5f6020820190508181035f8301526131f8816131bf565b9050919050565b7f5374616b696e6720776f756c6420657863656564206d61782054564c000000005f82015250565b5f613233601c836127bf565b915061323e826131ff565b602082019050919050565b5f6020820190508181035f83015261326081613227565b9050919050565b7f496e73756666696369656e7420696e697469616c207374616b650000000000005f82015250565b5f61329b601a836127bf565b91506132a682613267565b602082019050919050565b5f6020820190508181035f8301526132c88161328f565b9050919050565b7f576f756c6420726563656976652030204c5020746f6b656e73000000000000005f82015250565b5f6133036019836127bf565b915061330e826132cf565b602082019050919050565b5f6020820190508181035f830152613330816132f7565b9050919050565b5f60408201905061334a5f830185612947565b6133576020830184612947565b9392505050565b7f496e76616c69642067616d6520616464726573730000000000000000000000005f82015250565b5f6133926014836127bf565b915061339d8261335e565b602082019050919050565b5f6020820190508181035f8301526133bf81613386565b9050919050565b7f4d61782054564c206d7573742062652067726561746572207468616e203000005f82015250565b5f6133fa601e836127bf565b9150613405826133c6565b602082019050919050565b5f6020820190508181035f830152613427816133ee565b9050919050565b7f496e73756666696369656e74204c5020746f6b656e73000000000000000000005f82015250565b5f6134626016836127bf565b915061346d8261342e565b602082019050919050565b5f6020820190508181035f83015261348f81613456565b9050919050565b7f576f756c642072656365697665203020746f6b656e73000000000000000000005f82015250565b5f6134ca6016836127bf565b91506134d582613496565b602082019050919050565b5f6020820190508181035f8301526134f7816134be565b9050919050565b7f496e73756666696369656e7420706f6f6c2062616c616e6365000000000000005f82015250565b5f6135326019836127bf565b915061353d826134fe565b602082019050919050565b5f6020820190508181035f83015261355f81613526565b9050919050565b7f496e76616c69642077696e6e65722061646472657373000000000000000000005f82015250565b5f61359a6016836127bf565b91506135a582613566565b602082019050919050565b5f6020820190508181035f8301526135c78161358e565b9050919050565b5f6060820190506135e15f830186612b96565b6135ee6020830185612947565b6135fb6040830184612947565b94935050505056fe4e6f7420617574686f72697a656420746f207374616b65204c5020746f6b656e73a26469706673582212207bd803b0e528902a7a0fecd5cd3745e9dc0e1a2c64f9b0f5d30622d817bb493264736f6c634300081e0033",
        "linkReferences": {}
    },
    "methodIdentifiers": {
        "MINIMUM_LIQUIDITY()": "ba9a7a56",
        "acceptBet(address,uint256)": "10e15e64",
        "allowance(address,address)": "dd62ed3e",
        "approve(address,uint256)": "095ea7b3",
        "authorizedGames(address)": "9e492b99",
        "authorizedLpStakers(address)": "c93b8434",
        "balanceOf(address)": "70a08231",
        "bettingToken()": "43425e88",
        "canCoverPayout(uint256)": "423bcb9f",
        "canStake(uint256)": "53906653",
        "decimals()": "313ce567",
        "getCasinoAnalytics()": "675f3d09",
        "getExchangeRate()": "e6aa216c",
        "getTotalPoolValue()": "a14ed18a",
        "getTvlInfo()": "ec58c6a8",
        "lpStakingRestricted()": "2c5c73e8",
        "maxTvl()": "9a1815be",
        "name()": "06fdde03",
        "owner()": "8da5cb5b",
        "previewRedeem(uint256)": "4cdad506",
        "previewStake(uint256)": "727a5d57",
        "redeem(uint256)": "db006a75",
        "renounceOwnership()": "715018a6",
        "requestPayout(address,uint256)": "e8012eef",
        "rescueToken(address,uint256)": "33f3d628",
        "setGameAuthorization(address,bool)": "c9303738",
        "setLpStakerAuthorization(address,bool)": "1e0e7eac",
        "setMaxTvl(uint256)": "cb50087f",
        "stake(uint256)": "a694fc3a",
        "symbol()": "95d89b41",
        "toggleLpStakingRestriction()": "8f18368e",
        "totalCasinoBetVolume()": "73a1d9e6",
        "totalCasinoInflows()": "e5889bae",
        "totalCasinoOutflows()": "ca508d5c",
        "totalSupply()": "18160ddd",
        "transfer(address,uint256)": "a9059cbb",
        "transferFrom(address,address,uint256)": "23b872dd",
        "transferOwnership(address)": "f2fde38b"
    },
    "id": 32
}