{
    "abi": [
        {
            "type": "constructor",
            "inputs": [
                {
                    "name": "_l1ReadAddress",
                    "type": "address",
                    "internalType": "address"
                },
                {
                    "name": "_bettingTokenAddress",
                    "type": "address",
                    "internalType": "address"
                },
                {
                    "name": "_liquidityPoolAddress",
                    "type": "address",
                    "internalType": "address"
                },
                {
                    "name": "_initialMaxSpin",
                    "type": "uint256",
                    "internalType": "uint256"
                }
            ],
            "stateMutability": "nonpayable"
        },
        {
            "type": "function",
            "name": "BLOCKS_DELAY",
            "inputs": [],
            "outputs": [
                {
                    "name": "",
                    "type": "uint256",
                    "internalType": "uint256"
                }
            ],
            "stateMutability": "view"
        },
        {
            "type": "function",
            "name": "BTC_PERP_INDEX",
            "inputs": [],
            "outputs": [
                {
                    "name": "",
                    "type": "uint32",
                    "internalType": "uint32"
                }
            ],
            "stateMutability": "view"
        },
        {
            "type": "function",
            "name": "ETH_PERP_INDEX",
            "inputs": [],
            "outputs": [
                {
                    "name": "",
                    "type": "uint32",
                    "internalType": "uint32"
                }
            ],
            "stateMutability": "view"
        },
        {
            "type": "function",
            "name": "INSIDE_BET_PAYOUT",
            "inputs": [],
            "outputs": [
                {
                    "name": "",
                    "type": "uint256",
                    "internalType": "uint256"
                }
            ],
            "stateMutability": "view"
        },
        {
            "type": "function",
            "name": "OUTSIDE_BET_PAYOUT",
            "inputs": [],
            "outputs": [
                {
                    "name": "",
                    "type": "uint256",
                    "internalType": "uint256"
                }
            ],
            "stateMutability": "view"
        },
        {
            "type": "function",
            "name": "betMarketData",
            "inputs": [
                {
                    "name": "",
                    "type": "address",
                    "internalType": "address"
                },
                {
                    "name": "",
                    "type": "uint256",
                    "internalType": "uint256"
                }
            ],
            "outputs": [
                {
                    "name": "btcMarkPx",
                    "type": "uint64",
                    "internalType": "uint64"
                },
                {
                    "name": "btcOraclePx",
                    "type": "uint64",
                    "internalType": "uint64"
                },
                {
                    "name": "ethMarkPx",
                    "type": "uint64",
                    "internalType": "uint64"
                },
                {
                    "name": "ethOraclePx",
                    "type": "uint64",
                    "internalType": "uint64"
                },
                {
                    "name": "l1BlockNum",
                    "type": "uint64",
                    "internalType": "uint64"
                }
            ],
            "stateMutability": "view"
        },
        {
            "type": "function",
            "name": "bettingToken",
            "inputs": [],
            "outputs": [
                {
                    "name": "",
                    "type": "address",
                    "internalType": "contract IERC20"
                }
            ],
            "stateMutability": "view"
        },
        {
            "type": "function",
            "name": "canSettleBet",
            "inputs": [
                {
                    "name": "user",
                    "type": "address",
                    "internalType": "address"
                },
                {
                    "name": "betIndex",
                    "type": "uint256",
                    "internalType": "uint256"
                }
            ],
            "outputs": [
                {
                    "name": "",
                    "type": "bool",
                    "internalType": "bool"
                }
            ],
            "stateMutability": "view"
        },
        {
            "type": "function",
            "name": "getAllUserBets",
            "inputs": [
                {
                    "name": "user",
                    "type": "address",
                    "internalType": "address"
                }
            ],
            "outputs": [
                {
                    "name": "guesses",
                    "type": "uint8[]",
                    "internalType": "uint8[]"
                },
                {
                    "name": "wagers",
                    "type": "uint256[]",
                    "internalType": "uint256[]"
                },
                {
                    "name": "targetBlocks",
                    "type": "uint256[]",
                    "internalType": "uint256[]"
                },
                {
                    "name": "settled",
                    "type": "bool[]",
                    "internalType": "bool[]"
                },
                {
                    "name": "won",
                    "type": "bool[]",
                    "internalType": "bool[]"
                },
                {
                    "name": "payouts",
                    "type": "uint256[]",
                    "internalType": "uint256[]"
                },
                {
                    "name": "firstHexs",
                    "type": "uint8[]",
                    "internalType": "uint8[]"
                },
                {
                    "name": "secondHexs",
                    "type": "uint8[]",
                    "internalType": "uint8[]"
                },
                {
                    "name": "isExpired",
                    "type": "bool[]",
                    "internalType": "bool[]"
                }
            ],
            "stateMutability": "view"
        },
        {
            "type": "function",
            "name": "getGameAnalytics",
            "inputs": [],
            "outputs": [
                {
                    "name": "totalInflows",
                    "type": "uint256",
                    "internalType": "uint256"
                },
                {
                    "name": "totalOutflows",
                    "type": "uint256",
                    "internalType": "uint256"
                },
                {
                    "name": "netProfit",
                    "type": "int256",
                    "internalType": "int256"
                },
                {
                    "name": "totalBetVolume",
                    "type": "uint256",
                    "internalType": "uint256"
                }
            ],
            "stateMutability": "view"
        },
        {
            "type": "function",
            "name": "getSettleableBets",
            "inputs": [
                {
                    "name": "user",
                    "type": "address",
                    "internalType": "address"
                }
            ],
            "outputs": [
                {
                    "name": "indices",
                    "type": "uint256[]",
                    "internalType": "uint256[]"
                },
                {
                    "name": "firstHexs",
                    "type": "uint8[]",
                    "internalType": "uint8[]"
                },
                {
                    "name": "secondHexs",
                    "type": "uint8[]",
                    "internalType": "uint8[]"
                },
                {
                    "name": "isExpired",
                    "type": "bool[]",
                    "internalType": "bool[]"
                }
            ],
            "stateMutability": "view"
        },
        {
            "type": "function",
            "name": "getUserBet",
            "inputs": [
                {
                    "name": "user",
                    "type": "address",
                    "internalType": "address"
                },
                {
                    "name": "betIndex",
                    "type": "uint256",
                    "internalType": "uint256"
                }
            ],
            "outputs": [
                {
                    "name": "guess",
                    "type": "uint8",
                    "internalType": "uint8"
                },
                {
                    "name": "wager",
                    "type": "uint256",
                    "internalType": "uint256"
                },
                {
                    "name": "targetBlock",
                    "type": "uint256",
                    "internalType": "uint256"
                },
                {
                    "name": "settled",
                    "type": "bool",
                    "internalType": "bool"
                },
                {
                    "name": "won",
                    "type": "bool",
                    "internalType": "bool"
                },
                {
                    "name": "payout",
                    "type": "uint256",
                    "internalType": "uint256"
                },
                {
                    "name": "firstHex",
                    "type": "uint8",
                    "internalType": "uint8"
                },
                {
                    "name": "secondHex",
                    "type": "uint8",
                    "internalType": "uint8"
                },
                {
                    "name": "isExpired",
                    "type": "bool",
                    "internalType": "bool"
                }
            ],
            "stateMutability": "view"
        },
        {
            "type": "function",
            "name": "getUserBetCount",
            "inputs": [
                {
                    "name": "user",
                    "type": "address",
                    "internalType": "address"
                }
            ],
            "outputs": [
                {
                    "name": "",
                    "type": "uint256",
                    "internalType": "uint256"
                }
            ],
            "stateMutability": "view"
        },
        {
            "type": "function",
            "name": "l1Read",
            "inputs": [],
            "outputs": [
                {
                    "name": "",
                    "type": "address",
                    "internalType": "contract L1Read"
                }
            ],
            "stateMutability": "view"
        },
        {
            "type": "function",
            "name": "liquidityPool",
            "inputs": [],
            "outputs": [
                {
                    "name": "",
                    "type": "address",
                    "internalType": "contract LiquidityPool"
                }
            ],
            "stateMutability": "view"
        },
        {
            "type": "function",
            "name": "maxSpinAmount",
            "inputs": [],
            "outputs": [
                {
                    "name": "",
                    "type": "uint256",
                    "internalType": "uint256"
                }
            ],
            "stateMutability": "view"
        },
        {
            "type": "function",
            "name": "owner",
            "inputs": [],
            "outputs": [
                {
                    "name": "",
                    "type": "address",
                    "internalType": "address"
                }
            ],
            "stateMutability": "view"
        },
        {
            "type": "function",
            "name": "pause",
            "inputs": [],
            "outputs": [],
            "stateMutability": "nonpayable"
        },
        {
            "type": "function",
            "name": "paused",
            "inputs": [],
            "outputs": [
                {
                    "name": "",
                    "type": "bool",
                    "internalType": "bool"
                }
            ],
            "stateMutability": "view"
        },
        {
            "type": "function",
            "name": "placeBet",
            "inputs": [
                {
                    "name": "_guess",
                    "type": "uint8",
                    "internalType": "uint8"
                },
                {
                    "name": "_wager",
                    "type": "uint256",
                    "internalType": "uint256"
                }
            ],
            "outputs": [],
            "stateMutability": "nonpayable"
        },
        {
            "type": "function",
            "name": "placeMultipleBets",
            "inputs": [
                {
                    "name": "_guesses",
                    "type": "uint8[]",
                    "internalType": "uint8[]"
                },
                {
                    "name": "_wagers",
                    "type": "uint256[]",
                    "internalType": "uint256[]"
                }
            ],
            "outputs": [],
            "stateMutability": "nonpayable"
        },
        {
            "type": "function",
            "name": "renounceOwnership",
            "inputs": [],
            "outputs": [],
            "stateMutability": "nonpayable"
        },
        {
            "type": "function",
            "name": "rescueERC20",
            "inputs": [
                {
                    "name": "tokenAddress",
                    "type": "address",
                    "internalType": "address"
                },
                {
                    "name": "amount",
                    "type": "uint256",
                    "internalType": "uint256"
                }
            ],
            "outputs": [],
            "stateMutability": "nonpayable"
        },
        {
            "type": "function",
            "name": "rescueETH",
            "inputs": [],
            "outputs": [],
            "stateMutability": "nonpayable"
        },
        {
            "type": "function",
            "name": "setMaxSpinAmount",
            "inputs": [
                {
                    "name": "_newMaxSpin",
                    "type": "uint256",
                    "internalType": "uint256"
                }
            ],
            "outputs": [],
            "stateMutability": "nonpayable"
        },
        {
            "type": "function",
            "name": "settleBet",
            "inputs": [
                {
                    "name": "user",
                    "type": "address",
                    "internalType": "address"
                },
                {
                    "name": "betIndex",
                    "type": "uint256",
                    "internalType": "uint256"
                }
            ],
            "outputs": [],
            "stateMutability": "nonpayable"
        },
        {
            "type": "function",
            "name": "settleMultipleBets",
            "inputs": [
                {
                    "name": "user",
                    "type": "address",
                    "internalType": "address"
                },
                {
                    "name": "betIndices",
                    "type": "uint256[]",
                    "internalType": "uint256[]"
                }
            ],
            "outputs": [],
            "stateMutability": "nonpayable"
        },
        {
            "type": "function",
            "name": "totalGameBetVolume",
            "inputs": [],
            "outputs": [
                {
                    "name": "",
                    "type": "uint256",
                    "internalType": "uint256"
                }
            ],
            "stateMutability": "view"
        },
        {
            "type": "function",
            "name": "totalGameInflows",
            "inputs": [],
            "outputs": [
                {
                    "name": "",
                    "type": "uint256",
                    "internalType": "uint256"
                }
            ],
            "stateMutability": "view"
        },
        {
            "type": "function",
            "name": "totalGameOutflows",
            "inputs": [],
            "outputs": [
                {
                    "name": "",
                    "type": "uint256",
                    "internalType": "uint256"
                }
            ],
            "stateMutability": "view"
        },
        {
            "type": "function",
            "name": "transferOwnership",
            "inputs": [
                {
                    "name": "newOwner",
                    "type": "address",
                    "internalType": "address"
                }
            ],
            "outputs": [],
            "stateMutability": "nonpayable"
        },
        {
            "type": "function",
            "name": "unpause",
            "inputs": [],
            "outputs": [],
            "stateMutability": "nonpayable"
        },
        {
            "type": "function",
            "name": "userBets",
            "inputs": [
                {
                    "name": "",
                    "type": "address",
                    "internalType": "address"
                },
                {
                    "name": "",
                    "type": "uint256",
                    "internalType": "uint256"
                }
            ],
            "outputs": [
                {
                    "name": "guess",
                    "type": "uint8",
                    "internalType": "uint8"
                },
                {
                    "name": "wager",
                    "type": "uint256",
                    "internalType": "uint256"
                },
                {
                    "name": "targetBlock",
                    "type": "uint256",
                    "internalType": "uint256"
                },
                {
                    "name": "settled",
                    "type": "bool",
                    "internalType": "bool"
                },
                {
                    "name": "won",
                    "type": "bool",
                    "internalType": "bool"
                },
                {
                    "name": "payout",
                    "type": "uint256",
                    "internalType": "uint256"
                },
                {
                    "name": "firstHex",
                    "type": "uint8",
                    "internalType": "uint8"
                },
                {
                    "name": "secondHex",
                    "type": "uint8",
                    "internalType": "uint8"
                },
                {
                    "name": "isExpired",
                    "type": "bool",
                    "internalType": "bool"
                }
            ],
            "stateMutability": "view"
        },
        {
            "type": "function",
            "name": "userSpinTotalWager",
            "inputs": [
                {
                    "name": "",
                    "type": "address",
                    "internalType": "address"
                },
                {
                    "name": "",
                    "type": "uint256",
                    "internalType": "uint256"
                }
            ],
            "outputs": [
                {
                    "name": "",
                    "type": "uint256",
                    "internalType": "uint256"
                }
            ],
            "stateMutability": "view"
        },
        {
            "type": "event",
            "name": "BetExpired",
            "inputs": [
                {
                    "name": "betId",
                    "type": "uint256",
                    "indexed": true,
                    "internalType": "uint256"
                },
                {
                    "name": "user",
                    "type": "address",
                    "indexed": true,
                    "internalType": "address"
                },
                {
                    "name": "amount",
                    "type": "uint256",
                    "indexed": false,
                    "internalType": "uint256"
                },
                {
                    "name": "betType",
                    "type": "uint8",
                    "indexed": false,
                    "internalType": "uint8"
                }
            ],
            "anonymous": false
        },
        {
            "type": "event",
            "name": "BetPlaced",
            "inputs": [
                {
                    "name": "user",
                    "type": "address",
                    "indexed": true,
                    "internalType": "address"
                },
                {
                    "name": "betIndex",
                    "type": "uint256",
                    "indexed": false,
                    "internalType": "uint256"
                },
                {
                    "name": "guess",
                    "type": "uint8",
                    "indexed": false,
                    "internalType": "uint8"
                },
                {
                    "name": "wager",
                    "type": "uint256",
                    "indexed": false,
                    "internalType": "uint256"
                },
                {
                    "name": "targetBlock",
                    "type": "uint256",
                    "indexed": false,
                    "internalType": "uint256"
                }
            ],
            "anonymous": false
        },
        {
            "type": "event",
            "name": "BetSettled",
            "inputs": [
                {
                    "name": "user",
                    "type": "address",
                    "indexed": true,
                    "internalType": "address"
                },
                {
                    "name": "betIndex",
                    "type": "uint256",
                    "indexed": false,
                    "internalType": "uint256"
                },
                {
                    "name": "won",
                    "type": "bool",
                    "indexed": false,
                    "internalType": "bool"
                },
                {
                    "name": "firstHex",
                    "type": "uint8",
                    "indexed": false,
                    "internalType": "uint8"
                },
                {
                    "name": "secondHex",
                    "type": "uint8",
                    "indexed": false,
                    "internalType": "uint8"
                },
                {
                    "name": "payout",
                    "type": "uint256",
                    "indexed": false,
                    "internalType": "uint256"
                }
            ],
            "anonymous": false
        },
        {
            "type": "event",
            "name": "ContractPaused",
            "inputs": [
                {
                    "name": "by",
                    "type": "address",
                    "indexed": true,
                    "internalType": "address"
                }
            ],
            "anonymous": false
        },
        {
            "type": "event",
            "name": "ContractUnpaused",
            "inputs": [
                {
                    "name": "by",
                    "type": "address",
                    "indexed": true,
                    "internalType": "address"
                }
            ],
            "anonymous": false
        },
        {
            "type": "event",
            "name": "OwnershipTransferred",
            "inputs": [
                {
                    "name": "previousOwner",
                    "type": "address",
                    "indexed": true,
                    "internalType": "address"
                },
                {
                    "name": "newOwner",
                    "type": "address",
                    "indexed": true,
                    "internalType": "address"
                }
            ],
            "anonymous": false
        },
        {
            "type": "event",
            "name": "WinningsClaimed",
            "inputs": [
                {
                    "name": "user",
                    "type": "address",
                    "indexed": true,
                    "internalType": "address"
                },
                {
                    "name": "amount",
                    "type": "uint256",
                    "indexed": false,
                    "internalType": "uint256"
                }
            ],
            "anonymous": false
        },
        {
            "type": "error",
            "name": "OwnableInvalidOwner",
            "inputs": [
                {
                    "name": "owner",
                    "type": "address",
                    "internalType": "address"
                }
            ]
        },
        {
            "type": "error",
            "name": "OwnableUnauthorizedAccount",
            "inputs": [
                {
                    "name": "account",
                    "type": "address",
                    "internalType": "address"
                }
            ]
        }
    ],
    "bytecode": {
        "object": "0x60e060405234801561000f575f5ffd5b506040516154e83803806154e8833981810160405281019061003191906102b0565b335f73ffffffffffffffffffffffffffffffffffffffff168173ffffffffffffffffffffffffffffffffffffffff16036100a2575f6040517f1e4fbdf70000000000000000000000000000000000000000000000000000000081526004016100999190610323565b60405180910390fd5b6100b18161015e60201b60201c565b508373ffffffffffffffffffffffffffffffffffffffff1660808173ffffffffffffffffffffffffffffffffffffffff16815250508273ffffffffffffffffffffffffffffffffffffffff1660a08173ffffffffffffffffffffffffffffffffffffffff16815250508173ffffffffffffffffffffffffffffffffffffffff1660c08173ffffffffffffffffffffffffffffffffffffffff1681525050806004819055505050505061033c565b5f5f5f9054906101000a900473ffffffffffffffffffffffffffffffffffffffff169050815f5f6101000a81548173ffffffffffffffffffffffffffffffffffffffff021916908373ffffffffffffffffffffffffffffffffffffffff1602179055508173ffffffffffffffffffffffffffffffffffffffff168173ffffffffffffffffffffffffffffffffffffffff167f8be0079c531659141344cd1fd0a4f28419497f9722a3daafe3b4186f6b6457e060405160405180910390a35050565b5f5ffd5b5f73ffffffffffffffffffffffffffffffffffffffff82169050919050565b5f61024c82610223565b9050919050565b61025c81610242565b8114610266575f5ffd5b50565b5f8151905061027781610253565b92915050565b5f819050919050565b61028f8161027d565b8114610299575f5ffd5b50565b5f815190506102aa81610286565b92915050565b5f5f5f5f608085870312156102c8576102c761021f565b5b5f6102d587828801610269565b94505060206102e687828801610269565b93505060406102f787828801610269565b92505060606103088782880161029c565b91505092959194509250565b61031d81610242565b82525050565b5f6020820190506103365f830184610314565b92915050565b60805160a05160c0516151436103a55f395f81816108b0015281816127af01528181612e810152612f5801525f818161087a01526111f201525f8181611a9b015281816130780152818161311f015281816131c60152818161326e015261331601526151435ff3fe608060405234801561000f575f5ffd5b5060043610610204575f3560e01c8063acece2d611610118578063dcb3b30e116100ab578063ef529dff1161007a578063ef529dff146105c4578063ef9b8f7e146105e2578063f186816714610600578063f222b92e1461061e578063f2fde38b1461063c57610204565b8063dcb3b30e1461051f578063de87b07d1461053b578063e1d5cd1414610573578063e4ecf2571461059457610204565b8063ba2abf26116100e7578063ba2abf261461047d578063bc218482146104b5578063c14635ed146104d3578063c9d9760e146104ef57610204565b8063acece2d6146103f5578063afdece3514610413578063b2e54ea914610431578063b624010a1461044d57610204565b8063665a11ca1161019b5780637f1544551161016a5780637f1544551461035b5780638068aa68146103795780638456cb59146103b15780638cd4426d146103bb5780638da5cb5b146103d757610204565b8063665a11ca146102cc578063706ff5ba146102ea57806370bb44f61461031e578063715018a61461035157610204565b806328ec5bc0116101d757806328ec5bc01461026a5780633f4ba83a1461028657806343425e88146102905780635c975abb146102ae57610204565b80630b363656146102085780631874c6401461022657806320800a0014610242578063243e12391461024c575b5f5ffd5b610210610658565b60405161021d9190613b35565b60405180910390f35b610240600480360381019061023b9190613c11565b61065d565b005b61024a6106ac565b005b6102546107ad565b6040516102619190613c86565b60405180910390f35b610284600480360381019061027f9190613cc9565b6107b2565b005b61028e6107c4565b005b610298610878565b6040516102a59190613d4f565b60405180910390f35b6102b661089c565b6040516102c39190613d82565b60405180910390f35b6102d46108ae565b6040516102e19190613dbb565b60405180910390f35b61030460048036038101906102ff9190613dd4565b6108d2565b604051610315959493929190613e34565b60405180910390f35b61033860048036038101906103339190613e85565b61096e565b60405161034894939291906140e1565b60405180910390f35b610359610ff0565b005b610363611003565b6040516103709190613c86565b60405180910390f35b610393600480360381019061038e9190613dd4565b611009565b6040516103a89998979695949392919061414f565b60405180910390f35b6103b96110b8565b005b6103d560048036038101906103d09190613dd4565b61116e565b005b6103df6113eb565b6040516103ec91906141e9565b60405180910390f35b6103fd611412565b60405161040a9190613c86565b60405180910390f35b61041b611417565b6040516104289190613b35565b60405180910390f35b61044b60048036038101906104469190613dd4565b61141b565b005b61046760048036038101906104629190613e85565b611497565b6040516104749190613c86565b60405180910390f35b61049760048036038101906104929190613e85565b6114e0565b6040516104ac99989796959493929190614202565b60405180910390f35b6104bd611a99565b6040516104ca91906142ec565b60405180910390f35b6104ed60048036038101906104e8919061435a565b611abd565b005b61050960048036038101906105049190613dd4565b611b9c565b6040516105169190613c86565b60405180910390f35b61053960048036038101906105349190614402565b611bbc565b005b61055560048036038101906105509190613dd4565b611cfd565b60405161056a9998979695949392919061414f565b60405180910390f35b61057b611f01565b60405161058b9493929190614458565b60405180910390f35b6105ae60048036038101906105a99190613dd4565b611f28565b6040516105bb9190613d82565b60405180910390f35b6105cc6120c3565b6040516105d99190613c86565b60405180910390f35b6105ea6120c9565b6040516105f79190613c86565b60405180910390f35b6106086120cf565b6040516106159190613c86565b60405180910390f35b6106266120d4565b6040516106339190613c86565b60405180910390f35b61065660048036038101906106519190613e85565b6120da565b005b600181565b6106a7838383808060200260200160405190810160405280939291908181526020018383602002808284375f81840152601f19601f8201169050808301925050505050505061215e565b505050565b6106b46128a1565b5f4790505f81116106fa576040517f08c379a00000000000000000000000000000000000000000000000000000000081526004016106f1906144f5565b60405180910390fd5b5f6107036113eb565b73ffffffffffffffffffffffffffffffffffffffff168260405161072690614540565b5f6040518083038185875af1925050503d805f8114610760576040519150601f19603f3d011682016040523d82523d5f602084013e610765565b606091505b50509050806107a9576040517f08c379a00000000000000000000000000000000000000000000000000000000081526004016107a09061459e565b60405180910390fd5b5050565b600a81565b6107ba6128a1565b8060048190555050565b6107cc6128a1565b60055f9054906101000a900460ff1661081a576040517f08c379a000000000000000000000000000000000000000000000000000000000815260040161081190614606565b60405180910390fd5b5f60055f6101000a81548160ff0219169083151502179055503373ffffffffffffffffffffffffffffffffffffffff167f5b65b0c1363b3003db9bcc5e1fd8805a6d6bf5bf6dc9d3431ee4494cd7d1176660405160405180910390a2565b7f000000000000000000000000000000000000000000000000000000000000000081565b60055f9054906101000a900460ff1681565b7f000000000000000000000000000000000000000000000000000000000000000081565b6003602052815f5260405f20602052805f5260405f205f9150915050805f015f9054906101000a900467ffffffffffffffff1690805f0160089054906101000a900467ffffffffffffffff1690805f0160109054906101000a900467ffffffffffffffff1690805f0160189054906101000a900467ffffffffffffffff1690806001015f9054906101000a900467ffffffffffffffff16905085565b6060806060805f60015f8773ffffffffffffffffffffffffffffffffffffffff1673ffffffffffffffffffffffffffffffffffffffff1681526020019081526020015f208054905090505f8167ffffffffffffffff8111156109d3576109d2614624565b5b604051908082528060200260200182016040528015610a015781602001602082028036833780820191505090505b5090505f8267ffffffffffffffff811115610a1f57610a1e614624565b5b604051908082528060200260200182016040528015610a4d5781602001602082028036833780820191505090505b5090505f8367ffffffffffffffff811115610a6b57610a6a614624565b5b604051908082528060200260200182016040528015610a995781602001602082028036833780820191505090505b5090505f8467ffffffffffffffff811115610ab757610ab6614624565b5b604051908082528060200260200182016040528015610ae55781602001602082028036833780820191505090505b5090505f5f90505f5f90505b86811015610d9d575f60015f8e73ffffffffffffffffffffffffffffffffffffffff1673ffffffffffffffffffffffffffffffffffffffff1681526020019081526020015f208281548110610b4957610b48614651565b5b905f5260205f209060060201604051806101200160405290815f82015f9054906101000a900460ff1660ff1660ff1681526020016001820154815260200160028201548152602001600382015f9054906101000a900460ff161515151581526020016003820160019054906101000a900460ff1615151515815260200160048201548152602001600582015f9054906101000a900460ff1660ff1660ff1681526020016005820160019054906101000a900460ff1660ff1660ff1681526020016005820160029054906101000a900460ff16151515158152505090508060600151158015610c3a5750806040015143115b15610d8f5781878481518110610c5357610c52614651565b5b6020026020010181815250506101008160400151610c7191906146ab565b4311610d08575f610c878e848460400151612928565b9050610c9281612b13565b888681518110610ca557610ca4614651565b5b60200260200101888781518110610cbf57610cbe614651565b5b602002602001018260ff1660ff168152508260ff1660ff1681525050505f858581518110610cf057610cef614651565b5b60200260200101901515908115158152505050610d80565b5f868481518110610d1c57610d1b614651565b5b602002602001019060ff16908160ff16815250505f858481518110610d4457610d43614651565b5b602002602001019060ff16908160ff16815250506001848481518110610d6d57610d6c614651565b5b6020026020010190151590811515815250505b8280610d8b906146de565b9350505b508080600101915050610af1565b508067ffffffffffffffff811115610db857610db7614624565b5b604051908082528060200260200182016040528015610de65781602001602082028036833780820191505090505b5099508067ffffffffffffffff811115610e0357610e02614624565b5b604051908082528060200260200182016040528015610e315781602001602082028036833780820191505090505b5098508067ffffffffffffffff811115610e4e57610e4d614624565b5b604051908082528060200260200182016040528015610e7c5781602001602082028036833780820191505090505b5097508067ffffffffffffffff811115610e9957610e98614624565b5b604051908082528060200260200182016040528015610ec75781602001602082028036833780820191505090505b5096505f5f90505b81811015610fe257858181518110610eea57610ee9614651565b5b60200260200101518b8281518110610f0557610f04614651565b5b602002602001018181525050848181518110610f2457610f23614651565b5b60200260200101518a8281518110610f3f57610f3e614651565b5b602002602001019060ff16908160ff1681525050838181518110610f6657610f65614651565b5b6020026020010151898281518110610f8157610f80614651565b5b602002602001019060ff16908160ff1681525050828181518110610fa857610fa7614651565b5b6020026020010151888281518110610fc357610fc2614651565b5b6020026020010190151590811515815250508080600101915050610ecf565b505050505050509193509193565b610ff86128a1565b6110015f612b34565b565b60065481565b6001602052815f5260405f208181548110611022575f80fd5b905f5260205f2090600602015f9150915050805f015f9054906101000a900460ff1690806001015490806002015490806003015f9054906101000a900460ff16908060030160019054906101000a900460ff1690806004015490806005015f9054906101000a900460ff16908060050160019054906101000a900460ff16908060050160029054906101000a900460ff16905089565b6110c06128a1565b60055f9054906101000a900460ff161561110f576040517f08c379a00000000000000000000000000000000000000000000000000000000081526004016111069061476f565b60405180910390fd5b600160055f6101000a81548160ff0219169083151502179055503373ffffffffffffffffffffffffffffffffffffffff167f81990fd9a5c552b8e3677917d8a03c07678f0d2cb68f88b634aca2022e9bd19f60405160405180910390a2565b6111766128a1565b5f73ffffffffffffffffffffffffffffffffffffffff168273ffffffffffffffffffffffffffffffffffffffff16141580156111b157505f81115b6111f0576040517f08c379a00000000000000000000000000000000000000000000000000000000081526004016111e7906147d7565b60405180910390fd5b7f000000000000000000000000000000000000000000000000000000000000000073ffffffffffffffffffffffffffffffffffffffff168273ffffffffffffffffffffffffffffffffffffffff160361127e576040517f08c379a00000000000000000000000000000000000000000000000000000000081526004016112759061483f565b60405180910390fd5b5f5f8373ffffffffffffffffffffffffffffffffffffffff1661129f6113eb565b846040516024016112b192919061485d565b6040516020818303038152906040527fa9059cbb000000000000000000000000000000000000000000000000000000007bffffffffffffffffffffffffffffffffffffffffffffffffffffffff19166020820180517bffffffffffffffffffffffffffffffffffffffffffffffffffffffff838183161783525050505060405161133b91906148cc565b5f604051808303815f865af19150503d805f8114611374576040519150601f19603f3d011682016040523d82523d5f602084013e611379565b606091505b50915091508180156113a657505f815114806113a55750808060200190518101906113a4919061490c565b5b5b6113e5576040517f08c379a00000000000000000000000000000000000000000000000000000000081526004016113dc90614981565b60405180910390fd5b50505050565b5f5f5f9054906101000a900473ffffffffffffffffffffffffffffffffffffffff16905090565b600f81565b5f81565b5f600167ffffffffffffffff81111561143757611436614624565b5b6040519080825280602002602001820160405280156114655781602001602082028036833780820191505090505b50905081815f8151811061147c5761147b614651565b5b602002602001018181525050611492838261215e565b505050565b5f60015f8373ffffffffffffffffffffffffffffffffffffffff1673ffffffffffffffffffffffffffffffffffffffff1681526020019081526020015f20805490509050919050565b60608060608060608060608060605f60015f8c73ffffffffffffffffffffffffffffffffffffffff1673ffffffffffffffffffffffffffffffffffffffff1681526020019081526020015f208054905090508067ffffffffffffffff81111561154c5761154b614624565b5b60405190808252806020026020018201604052801561157a5781602001602082028036833780820191505090505b5099508067ffffffffffffffff81111561159757611596614624565b5b6040519080825280602002602001820160405280156115c55781602001602082028036833780820191505090505b5098508067ffffffffffffffff8111156115e2576115e1614624565b5b6040519080825280602002602001820160405280156116105781602001602082028036833780820191505090505b5097508067ffffffffffffffff81111561162d5761162c614624565b5b60405190808252806020026020018201604052801561165b5781602001602082028036833780820191505090505b5096508067ffffffffffffffff81111561167857611677614624565b5b6040519080825280602002602001820160405280156116a65781602001602082028036833780820191505090505b5095508067ffffffffffffffff8111156116c3576116c2614624565b5b6040519080825280602002602001820160405280156116f15781602001602082028036833780820191505090505b5094508067ffffffffffffffff81111561170e5761170d614624565b5b60405190808252806020026020018201604052801561173c5781602001602082028036833780820191505090505b5093508067ffffffffffffffff81111561175957611758614624565b5b6040519080825280602002602001820160405280156117875781602001602082028036833780820191505090505b5092508067ffffffffffffffff8111156117a4576117a3614624565b5b6040519080825280602002602001820160405280156117d25781602001602082028036833780820191505090505b5091505f5f90505b81811015611a8a575f60015f8e73ffffffffffffffffffffffffffffffffffffffff1673ffffffffffffffffffffffffffffffffffffffff1681526020019081526020015f20828154811061183257611831614651565b5b905f5260205f209060060201604051806101200160405290815f82015f9054906101000a900460ff1660ff1660ff1681526020016001820154815260200160028201548152602001600382015f9054906101000a900460ff161515151581526020016003820160019054906101000a900460ff1615151515815260200160048201548152602001600582015f9054906101000a900460ff1660ff1660ff1681526020016005820160019054906101000a900460ff1660ff1660ff1681526020016005820160029054906101000a900460ff1615151515815250509050805f01518c838151811061192557611924614651565b5b602002602001019060ff16908160ff168152505080602001518b838151811061195157611950614651565b5b60200260200101818152505080604001518a838151811061197557611974614651565b5b602002602001018181525050806060015189838151811061199957611998614651565b5b60200260200101901515908115158152505080608001518883815181106119c3576119c2614651565b5b6020026020010190151590811515815250508060a001518783815181106119ed576119ec614651565b5b6020026020010181815250508060c00151868381518110611a1157611a10614651565b5b602002602001019060ff16908160ff16815250508060e00151858381518110611a3d57611a3c614651565b5b602002602001019060ff16908160ff1681525050806101000151848381518110611a6a57611a69614651565b5b6020026020010190151590811515815250505080806001019150506117da565b50509193959799909294969850565b7f000000000000000000000000000000000000000000000000000000000000000081565b60055f9054906101000a900460ff1615611b0c576040517f08c379a0000000000000000000000000000000000000000000000000000000008152600401611b03906149e9565b60405180910390fd5b611b968484808060200260200160405190810160405280939291908181526020018383602002808284375f81840152601f19601f820116905080830192505050505050508383808060200260200160405190810160405280939291908181526020018383602002808284375f81840152601f19601f82011690508083019250505050505050612bf5565b50505050565b6002602052815f5260405f20602052805f5260405f205f91509150505481565b60055f9054906101000a900460ff1615611c0b576040517f08c379a0000000000000000000000000000000000000000000000000000000008152600401611c02906149e9565b60405180910390fd5b5f600167ffffffffffffffff811115611c2757611c26614624565b5b604051908082528060200260200182016040528015611c555781602001602082028036833780820191505090505b5090505f600167ffffffffffffffff811115611c7457611c73614624565b5b604051908082528060200260200182016040528015611ca25781602001602082028036833780820191505090505b50905083825f81518110611cb957611cb8614651565b5b602002602001019060ff16908160ff168152505082815f81518110611ce157611ce0614651565b5b602002602001018181525050611cf78282612bf5565b50505050565b5f5f5f5f5f5f5f5f5f60015f8c73ffffffffffffffffffffffffffffffffffffffff1673ffffffffffffffffffffffffffffffffffffffff1681526020019081526020015f20805490508a10611d88576040517f08c379a0000000000000000000000000000000000000000000000000000000008152600401611d7f90614a51565b60405180910390fd5b5f60015f8d73ffffffffffffffffffffffffffffffffffffffff1673ffffffffffffffffffffffffffffffffffffffff1681526020019081526020015f208b81548110611dd857611dd7614651565b5b905f5260205f209060060201604051806101200160405290815f82015f9054906101000a900460ff1660ff1660ff1681526020016001820154815260200160028201548152602001600382015f9054906101000a900460ff161515151581526020016003820160019054906101000a900460ff1615151515815260200160048201548152602001600582015f9054906101000a900460ff1660ff1660ff1681526020016005820160019054906101000a900460ff1660ff1660ff1681526020016005820160029054906101000a900460ff1615151515815250509050805f015181602001518260400151836060015184608001518560a001518660c001518760e00151886101000151995099509950995099509950995099509950509295985092959850929598565b5f5f5f5f600654935060075492508284611f1b9190614a6f565b9150600854905090919293565b5f60015f8473ffffffffffffffffffffffffffffffffffffffff1673ffffffffffffffffffffffffffffffffffffffff1681526020019081526020015f20805490508210611f78575f90506120bd565b5f60015f8573ffffffffffffffffffffffffffffffffffffffff1673ffffffffffffffffffffffffffffffffffffffff1681526020019081526020015f208381548110611fc857611fc7614651565b5b905f5260205f209060060201604051806101200160405290815f82015f9054906101000a900460ff1660ff1660ff1681526020016001820154815260200160028201548152602001600382015f9054906101000a900460ff161515151581526020016003820160019054906101000a900460ff1615151515815260200160048201548152602001600582015f9054906101000a900460ff1660ff1660ff1681526020016005820160019054906101000a900460ff1660ff1660ff1681526020016005820160029054906101000a900460ff161515151581525050905080606001511580156120b95750806040015143115b9150505b92915050565b60075481565b60045481565b600281565b60085481565b6120e26128a1565b5f73ffffffffffffffffffffffffffffffffffffffff168173ffffffffffffffffffffffffffffffffffffffff1603612152575f6040517f1e4fbdf700000000000000000000000000000000000000000000000000000000815260040161214991906141e9565b60405180910390fd5b61215b81612b34565b50565b5f815111801561217057506032815111155b6121af576040517f08c379a00000000000000000000000000000000000000000000000000000000081526004016121a690614af9565b60405180910390fd5b5f5f90505f5f90505b82518110156127a4575f8382815181106121d5576121d4614651565b5b6020026020010151905060015f8673ffffffffffffffffffffffffffffffffffffffff1673ffffffffffffffffffffffffffffffffffffffff1681526020019081526020015f20805490508110612261576040517f08c379a000000000000000000000000000000000000000000000000000000000815260040161225890614a51565b60405180910390fd5b5f60015f8773ffffffffffffffffffffffffffffffffffffffff1673ffffffffffffffffffffffffffffffffffffffff1681526020019081526020015f2082815481106122b1576122b0614651565b5b905f5260205f2090600602019050806003015f9054906101000a900460ff1615612310576040517f08c379a000000000000000000000000000000000000000000000000000000000815260040161230790614b61565b60405180910390fd5b80600201544311612356576040517f08c379a000000000000000000000000000000000000000000000000000000000815260040161234d90614bc9565b60405180910390fd5b6001816003015f6101000a81548160ff021916908315150217905550610100816002015461238491906146ab565b43111561246f575f8160030160016101000a81548160ff0219169083151502179055505f81600401819055505f816005015f6101000a81548160ff021916908360ff1602179055505f8160050160016101000a81548160ff021916908360ff16021790555060018160050160026101000a81548160ff0219169083151502179055508573ffffffffffffffffffffffffffffffffffffffff16827fec03f031b656385f7def1be4d192c091c0dab007ca2be1019090cd0027210ebf8360010154845f015f9054906101000a900460ff16604051612462929190614be7565b60405180910390a36126d0565b5f8160050160026101000a81548160ff0219169083151502179055505f81600201544090505f5f1b81036124d8576040517f08c379a00000000000000000000000000000000000000000000000000000000081526004016124cf90614c58565b60405180910390fd5b5f6124e888858560020154612928565b90505f600f821690505f600f600484901c1690505f8260ff168260ff161490505f81801561251857505f8460ff16145b905082876005015f6101000a81548160ff021916908360ff160217905550838760050160016101000a81548160ff021916908360ff1602179055506011875f015f9054906101000a900460ff1660ff161061257e576125798785848461379b565b6126c9565b6010875f015f9054906101000a900460ff1660ff16036125f257801580156125a35750815b156125e35760018760030160016101000a81548160ff021916908315150217905550600f87600101546125d69190614c76565b87600401819055506125ed565b5f87600401819055505b6126c8565b8115612665575f875f015f9054906101000a900460ff1660ff161480156126165750805b156126565760018760030160016101000a81548160ff021916908315150217905550600f87600101546126499190614c76565b8760040181905550612660565b5f87600401819055505b6126c7565b8360ff16875f015f9054906101000a900460ff1660ff16036126bc5760018760030160016101000a81548160ff021916908315150217905550600f87600101546126af9190614c76565b87600401819055506126c6565b5f87600401819055505b5b5b5b5050505050505b8060030160019054906101000a900460ff1680156126f157505f8160040154115b156127095780600401548461270691906146ab565b93505b8573ffffffffffffffffffffffffffffffffffffffff167f7c8824838be586f6285b14a62352482a92e05f6987c351476265a21e8d620311838360030160019054906101000a900460ff16846005015f9054906101000a900460ff168560050160019054906101000a900460ff16866004015460405161278d959493929190614cb7565b60405180910390a2505080806001019150506121b8565b505f81111561289c577f000000000000000000000000000000000000000000000000000000000000000073ffffffffffffffffffffffffffffffffffffffff1663e8012eef84836040518363ffffffff1660e01b815260040161280892919061485d565b5f604051808303815f87803b15801561281f575f5ffd5b505af1158015612831573d5f5f3e3d5ffd5b505050508060075f82825461284691906146ab565b925050819055508273ffffffffffffffffffffffffffffffffffffffff167f1a31e733a172afcf46074b3106c17f0c298e226442682a03c1e99ce256139ec2826040516128939190613c86565b60405180910390a25b505050565b6128a9613948565b73ffffffffffffffffffffffffffffffffffffffff166128c76113eb565b73ffffffffffffffffffffffffffffffffffffffff1614612926576128ea613948565b6040517f118cdaa700000000000000000000000000000000000000000000000000000000815260040161291d91906141e9565b60405180910390fd5b565b5f5f824090505f5f1b8103612972576040517f08c379a000000000000000000000000000000000000000000000000000000000815260040161296990614d52565b60405180910390fd5b5f60035f8773ffffffffffffffffffffffffffffffffffffffff1673ffffffffffffffffffffffffffffffffffffffff1681526020019081526020015f205f8681526020019081526020015f206040518060a00160405290815f82015f9054906101000a900467ffffffffffffffff1667ffffffffffffffff1667ffffffffffffffff1681526020015f820160089054906101000a900467ffffffffffffffff1667ffffffffffffffff1667ffffffffffffffff1681526020015f820160109054906101000a900467ffffffffffffffff1667ffffffffffffffff1667ffffffffffffffff1681526020015f820160189054906101000a900467ffffffffffffffff1667ffffffffffffffff1667ffffffffffffffff168152602001600182015f9054906101000a900467ffffffffffffffff1667ffffffffffffffff1667ffffffffffffffff1681525050905081815f0151826020015183604001518460600151856080015189604051602001612af09796959493929190614ded565b604051602081830303815290604052805190602001205f1c925050509392505050565b5f5f5f600f841690505f600f600486901c1690508082935093505050915091565b5f5f5f9054906101000a900473ffffffffffffffffffffffffffffffffffffffff169050815f5f6101000a81548173ffffffffffffffffffffffffffffffffffffffff021916908373ffffffffffffffffffffffffffffffffffffffff1602179055508173ffffffffffffffffffffffffffffffffffffffff168173ffffffffffffffffffffffffffffffffffffffff167f8be0079c531659141344cd1fd0a4f28419497f9722a3daafe3b4186f6b6457e060405160405180910390a35050565b80518251148015612c0657505f8251115b8015612c1457506032825111155b612c53576040517f08c379a0000000000000000000000000000000000000000000000000000000008152600401612c4a90614eb7565b60405180910390fd5b612c5c3361394f565b612c9b576040517f08c379a0000000000000000000000000000000000000000000000000000000008152600401612c9290614f1f565b60405180910390fd5b5f600a43612ca991906146ab565b90505f60025f3373ffffffffffffffffffffffffffffffffffffffff1673ffffffffffffffffffffffffffffffffffffffff1681526020019081526020015f205f8381526020019081526020015f205490505f5f90505f5f90505f5f90505b8651811015612e2e576016878281518110612d2657612d25614651565b5b602002602001015160ff1611158015612d5857505f868281518110612d4e57612d4d614651565b5b6020026020010151115b612d97576040517f08c379a0000000000000000000000000000000000000000000000000000000008152600401612d8e90614f87565b60405180910390fd5b858181518110612daa57612da9614651565b5b602002602001015183612dbd91906146ab565b92506011878281518110612dd457612dd3614651565b5b602002602001015160ff161015612dec57600f612def565b60025b868281518110612e0257612e01614651565b5b6020026020010151612e149190614c76565b82612e1f91906146ab565b91508080600101915050612d08565b506004548284612e3e91906146ab565b1115612e7f576040517f08c379a0000000000000000000000000000000000000000000000000000000008152600401612e7690614fef565b60405180910390fd5b7f000000000000000000000000000000000000000000000000000000000000000073ffffffffffffffffffffffffffffffffffffffff1663423bcb9f826040518263ffffffff1660e01b8152600401612ed89190613c86565b602060405180830381865afa158015612ef3573d5f5f3e3d5ffd5b505050506040513d601f19601f82011682018060405250810190612f17919061490c565b612f56576040517f08c379a0000000000000000000000000000000000000000000000000000000008152600401612f4d90615057565b60405180910390fd5b7f000000000000000000000000000000000000000000000000000000000000000073ffffffffffffffffffffffffffffffffffffffff166310e15e6433846040518363ffffffff1660e01b8152600401612fb192919061485d565b5f604051808303815f87803b158015612fc8575f5ffd5b505af1158015612fda573d5f5f3e3d5ffd5b505050508160085f828254612fef91906146ab565b925050819055508160065f82825461300791906146ab565b92505081905550818361301a91906146ab565b60025f3373ffffffffffffffffffffffffffffffffffffffff1673ffffffffffffffffffffffffffffffffffffffff1681526020019081526020015f205f8681526020019081526020015f20819055505f6040518060a001604052807f000000000000000000000000000000000000000000000000000000000000000073ffffffffffffffffffffffffffffffffffffffff1663c8eec8c65f6040518263ffffffff1660e01b81526004016130cf9190613b35565b602060405180830381865afa1580156130ea573d5f5f3e3d5ffd5b505050506040513d601f19601f8201168201806040525081019061310e919061509f565b67ffffffffffffffff1681526020017f000000000000000000000000000000000000000000000000000000000000000073ffffffffffffffffffffffffffffffffffffffff1663c0f0f5ef5f6040518263ffffffff1660e01b81526004016131769190613b35565b602060405180830381865afa158015613191573d5f5f3e3d5ffd5b505050506040513d601f19601f820116820180604052508101906131b5919061509f565b67ffffffffffffffff1681526020017f000000000000000000000000000000000000000000000000000000000000000073ffffffffffffffffffffffffffffffffffffffff1663c8eec8c660016040518263ffffffff1660e01b815260040161321e9190613b35565b602060405180830381865afa158015613239573d5f5f3e3d5ffd5b505050506040513d601f19601f8201168201806040525081019061325d919061509f565b67ffffffffffffffff1681526020017f000000000000000000000000000000000000000000000000000000000000000073ffffffffffffffffffffffffffffffffffffffff1663c0f0f5ef60016040518263ffffffff1660e01b81526004016132c69190613b35565b602060405180830381865afa1580156132e1573d5f5f3e3d5ffd5b505050506040513d601f19601f82011682018060405250810190613305919061509f565b67ffffffffffffffff1681526020017f000000000000000000000000000000000000000000000000000000000000000073ffffffffffffffffffffffffffffffffffffffff1663298c90056040518163ffffffff1660e01b8152600401602060405180830381865afa15801561337d573d5f5f3e3d5ffd5b505050506040513d601f19601f820116820180604052508101906133a1919061509f565b67ffffffffffffffff1681525090505f5f90505b8751811015613791575f60015f3373ffffffffffffffffffffffffffffffffffffffff1673ffffffffffffffffffffffffffffffffffffffff1681526020019081526020015f2080549050905060015f3373ffffffffffffffffffffffffffffffffffffffff1673ffffffffffffffffffffffffffffffffffffffff1681526020019081526020015f206040518061012001604052808b858151811061345e5761345d614651565b5b602002602001015160ff1681526020018a858151811061348157613480614651565b5b602002602001015181526020018981526020015f151581526020015f151581526020015f81526020015f60ff1681526020015f60ff1681526020015f1515815250908060018154018082558091505060019003905f5260205f2090600602015f909190919091505f820151815f015f6101000a81548160ff021916908360ff16021790555060208201518160010155604082015181600201556060820151816003015f6101000a81548160ff02191690831515021790555060808201518160030160016101000a81548160ff02191690831515021790555060a0820151816004015560c0820151816005015f6101000a81548160ff021916908360ff16021790555060e08201518160050160016101000a81548160ff021916908360ff1602179055506101008201518160050160026101000a81548160ff02191690831515021790555050508260035f3373ffffffffffffffffffffffffffffffffffffffff1673ffffffffffffffffffffffffffffffffffffffff1681526020019081526020015f205f8381526020019081526020015f205f820151815f015f6101000a81548167ffffffffffffffff021916908367ffffffffffffffff1602179055506020820151815f0160086101000a81548167ffffffffffffffff021916908367ffffffffffffffff1602179055506040820151815f0160106101000a81548167ffffffffffffffff021916908367ffffffffffffffff1602179055506060820151815f0160186101000a81548167ffffffffffffffff021916908367ffffffffffffffff1602179055506080820151816001015f6101000a81548167ffffffffffffffff021916908367ffffffffffffffff1602179055509050503373ffffffffffffffffffffffffffffffffffffffff167ffc72f5d1bbb3e58b990487d2f10e45826d574e4478301772280f7ecb1372a2c0828b858151811061374757613746614651565b5b60200260200101518b868151811061376257613761614651565b5b60200260200101518b60405161377b94939291906150ca565b60405180910390a25080806001019150506133b5565b5050505050505050565b5f5f9050816138f6576011855f015f9054906101000a900460ff1660ff16036137e05782806137d95750821580156137d857506137d784613a33565b5b5b90506138f5565b6012855f015f9054906101000a900460ff1660ff1603613814578215801561380d575061380c84613a59565b5b90506138f4565b6013855f015f9054906101000a900460ff1660ff16036138485782158015613841575061384084613a7f565b5b90506138f3565b6014855f015f9054906101000a900460ff1660ff160361388457828061387d57508215801561387c575061387b84613aa5565b5b5b90506138f2565b6015855f015f9054906101000a900460ff1660ff16036138b857821580156138b157506138b084613acb565b5b90506138f1565b6016855f015f9054906101000a900460ff1660ff16036138f05782806138ed5750821580156138ec57506138eb84613af1565b5b5b90505b5b5b5b5b5b5b80156139375760018560030160016101000a81548160ff0219169083151502179055506002856001015461392a9190614c76565b8560040181905550613941565b5f85600401819055505b5050505050565b5f33905090565b5f5f60015f8473ffffffffffffffffffffffffffffffffffffffff1673ffffffffffffffffffffffffffffffffffffffff1681526020019081526020015f208054905090505f5f90505b81811015613a275760015f8573ffffffffffffffffffffffffffffffffffffffff1673ffffffffffffffffffffffffffffffffffffffff1681526020019081526020015f2081815481106139f0576139ef614651565b5b905f5260205f2090600602016003015f9054906101000a900460ff16613a1a575f92505050613a2e565b8080600101915050613999565b5060019150505b919050565b5f600f8260ff1611158015613a5257506001808360ff16614aaa901c16145b9050919050565b5f600f8260ff1611158015613a7857506001808360ff1661b554901c16145b9050919050565b5f600f8260ff1611158015613a9e57506001808360ff16611e1e901c16145b9050919050565b5f600f8260ff1611158015613ac457506001808360ff1661e1e0901c16145b9050919050565b5f600f8260ff1611158015613aea57506001808360ff166101fe901c16145b9050919050565b5f600f8260ff1611158015613b1057506001808360ff1661fe00901c16145b9050919050565b5f63ffffffff82169050919050565b613b2f81613b17565b82525050565b5f602082019050613b485f830184613b26565b92915050565b5f5ffd5b5f5ffd5b5f73ffffffffffffffffffffffffffffffffffffffff82169050919050565b5f613b7f82613b56565b9050919050565b613b8f81613b75565b8114613b99575f5ffd5b50565b5f81359050613baa81613b86565b92915050565b5f5ffd5b5f5ffd5b5f5ffd5b5f5f83601f840112613bd157613bd0613bb0565b5b8235905067ffffffffffffffff811115613bee57613bed613bb4565b5b602083019150836020820283011115613c0a57613c09613bb8565b5b9250929050565b5f5f5f60408486031215613c2857613c27613b4e565b5b5f613c3586828701613b9c565b935050602084013567ffffffffffffffff811115613c5657613c55613b52565b5b613c6286828701613bbc565b92509250509250925092565b5f819050919050565b613c8081613c6e565b82525050565b5f602082019050613c995f830184613c77565b92915050565b613ca881613c6e565b8114613cb2575f5ffd5b50565b5f81359050613cc381613c9f565b92915050565b5f60208284031215613cde57613cdd613b4e565b5b5f613ceb84828501613cb5565b91505092915050565b5f819050919050565b5f613d17613d12613d0d84613b56565b613cf4565b613b56565b9050919050565b5f613d2882613cfd565b9050919050565b5f613d3982613d1e565b9050919050565b613d4981613d2f565b82525050565b5f602082019050613d625f830184613d40565b92915050565b5f8115159050919050565b613d7c81613d68565b82525050565b5f602082019050613d955f830184613d73565b92915050565b5f613da582613d1e565b9050919050565b613db581613d9b565b82525050565b5f602082019050613dce5f830184613dac565b92915050565b5f5f60408385031215613dea57613de9613b4e565b5b5f613df785828601613b9c565b9250506020613e0885828601613cb5565b9150509250929050565b5f67ffffffffffffffff82169050919050565b613e2e81613e12565b82525050565b5f60a082019050613e475f830188613e25565b613e546020830187613e25565b613e616040830186613e25565b613e6e6060830185613e25565b613e7b6080830184613e25565b9695505050505050565b5f60208284031215613e9a57613e99613b4e565b5b5f613ea784828501613b9c565b91505092915050565b5f81519050919050565b5f82825260208201905092915050565b5f819050602082019050919050565b613ee281613c6e565b82525050565b5f613ef38383613ed9565b60208301905092915050565b5f602082019050919050565b5f613f1582613eb0565b613f1f8185613eba565b9350613f2a83613eca565b805f5b83811015613f5a578151613f418882613ee8565b9750613f4c83613eff565b925050600181019050613f2d565b5085935050505092915050565b5f81519050919050565b5f82825260208201905092915050565b5f819050602082019050919050565b5f60ff82169050919050565b613fa581613f90565b82525050565b5f613fb68383613f9c565b60208301905092915050565b5f602082019050919050565b5f613fd882613f67565b613fe28185613f71565b9350613fed83613f81565b805f5b8381101561401d5781516140048882613fab565b975061400f83613fc2565b925050600181019050613ff0565b5085935050505092915050565b5f81519050919050565b5f82825260208201905092915050565b5f819050602082019050919050565b61405c81613d68565b82525050565b5f61406d8383614053565b60208301905092915050565b5f602082019050919050565b5f61408f8261402a565b6140998185614034565b93506140a483614044565b805f5b838110156140d45781516140bb8882614062565b97506140c683614079565b9250506001810190506140a7565b5085935050505092915050565b5f6080820190508181035f8301526140f98187613f0b565b9050818103602083015261410d8186613fce565b905081810360408301526141218185613fce565b905081810360608301526141358184614085565b905095945050505050565b61414981613f90565b82525050565b5f610120820190506141635f83018c614140565b614170602083018b613c77565b61417d604083018a613c77565b61418a6060830189613d73565b6141976080830188613d73565b6141a460a0830187613c77565b6141b160c0830186614140565b6141be60e0830185614140565b6141cc610100830184613d73565b9a9950505050505050505050565b6141e381613b75565b82525050565b5f6020820190506141fc5f8301846141da565b92915050565b5f610120820190508181035f83015261421b818c613fce565b9050818103602083015261422f818b613f0b565b90508181036040830152614243818a613f0b565b905081810360608301526142578189614085565b9050818103608083015261426b8188614085565b905081810360a083015261427f8187613f0b565b905081810360c08301526142938186613fce565b905081810360e08301526142a78185613fce565b90508181036101008301526142bc8184614085565b90509a9950505050505050505050565b5f6142d682613d1e565b9050919050565b6142e6816142cc565b82525050565b5f6020820190506142ff5f8301846142dd565b92915050565b5f5f83601f84011261431a57614319613bb0565b5b8235905067ffffffffffffffff81111561433757614336613bb4565b5b60208301915083602082028301111561435357614352613bb8565b5b9250929050565b5f5f5f5f6040858703121561437257614371613b4e565b5b5f85013567ffffffffffffffff81111561438f5761438e613b52565b5b61439b87828801614305565b9450945050602085013567ffffffffffffffff8111156143be576143bd613b52565b5b6143ca87828801613bbc565b925092505092959194509250565b6143e181613f90565b81146143eb575f5ffd5b50565b5f813590506143fc816143d8565b92915050565b5f5f6040838503121561441857614417613b4e565b5b5f614425858286016143ee565b925050602061443685828601613cb5565b9150509250929050565b5f819050919050565b61445281614440565b82525050565b5f60808201905061446b5f830187613c77565b6144786020830186613c77565b6144856040830185614449565b6144926060830184613c77565b95945050505050565b5f82825260208201905092915050565b7f4e6f2045544820746f20726573637565000000000000000000000000000000005f82015250565b5f6144df60108361449b565b91506144ea826144ab565b602082019050919050565b5f6020820190508181035f83015261450c816144d3565b9050919050565b5f81905092915050565b50565b5f61452b5f83614513565b91506145368261451d565b5f82019050919050565b5f61454a82614520565b9150819050919050565b7f455448207472616e73666572206661696c6564000000000000000000000000005f82015250565b5f61458860138361449b565b915061459382614554565b602082019050919050565b5f6020820190508181035f8301526145b58161457c565b9050919050565b7f4e6f7420706175736564000000000000000000000000000000000000000000005f82015250565b5f6145f0600a8361449b565b91506145fb826145bc565b602082019050919050565b5f6020820190508181035f83015261461d816145e4565b9050919050565b7f4e487b71000000000000000000000000000000000000000000000000000000005f52604160045260245ffd5b7f4e487b71000000000000000000000000000000000000000000000000000000005f52603260045260245ffd5b7f4e487b71000000000000000000000000000000000000000000000000000000005f52601160045260245ffd5b5f6146b582613c6e565b91506146c083613c6e565b92508282019050808211156146d8576146d761467e565b5b92915050565b5f6146e882613c6e565b91507fffffffffffffffffffffffffffffffffffffffffffffffffffffffffffffffff820361471a5761471961467e565b5b600182019050919050565b7f416c7265616479207061757365640000000000000000000000000000000000005f82015250565b5f614759600e8361449b565b915061476482614725565b602082019050919050565b5f6020820190508181035f8301526147868161474d565b9050919050565b7f496e76616c696420706172616d730000000000000000000000000000000000005f82015250565b5f6147c1600e8361449b565b91506147cc8261478d565b602082019050919050565b5f6020820190508181035f8301526147ee816147b5565b9050919050565b7f43616e6e6f74207265736375652062657474696e6720746f6b656e00000000005f82015250565b5f614829601b8361449b565b9150614834826147f5565b602082019050919050565b5f6020820190508181035f8301526148568161481d565b9050919050565b5f6040820190506148705f8301856141da565b61487d6020830184613c77565b9392505050565b5f81519050919050565b8281835e5f83830152505050565b5f6148a682614884565b6148b08185614513565b93506148c081856020860161488e565b80840191505092915050565b5f6148d7828461489c565b915081905092915050565b6148eb81613d68565b81146148f5575f5ffd5b50565b5f81519050614906816148e2565b92915050565b5f6020828403121561492157614920613b4e565b5b5f61492e848285016148f8565b91505092915050565b7f5472616e73666572206661696c656400000000000000000000000000000000005f82015250565b5f61496b600f8361449b565b915061497682614937565b602082019050919050565b5f6020820190508181035f8301526149988161495f565b9050919050565b7f50617573656400000000000000000000000000000000000000000000000000005f82015250565b5f6149d360068361449b565b91506149de8261499f565b602082019050919050565b5f6020820190508181035f830152614a00816149c7565b9050919050565b7f496e76616c696420696e646578000000000000000000000000000000000000005f82015250565b5f614a3b600d8361449b565b9150614a4682614a07565b602082019050919050565b5f6020820190508181035f830152614a6881614a2f565b9050919050565b5f614a7982614440565b9150614a8483614440565b925082820390508181125f8412168282135f851215161715614aa957614aa861467e565b5b92915050565b7f496e76616c6964206c656e6774680000000000000000000000000000000000005f82015250565b5f614ae3600e8361449b565b9150614aee82614aaf565b602082019050919050565b5f6020820190508181035f830152614b1081614ad7565b9050919050565b7f416c726561647920736574746c656400000000000000000000000000000000005f82015250565b5f614b4b600f8361449b565b9150614b5682614b17565b602082019050919050565b5f6020820190508181035f830152614b7881614b3f565b9050919050565b7f43616e6e6f7420736574746c65207965740000000000000000000000000000005f82015250565b5f614bb360118361449b565b9150614bbe82614b7f565b602082019050919050565b5f6020820190508181035f830152614be081614ba7565b9050919050565b5f604082019050614bfa5f830185613c77565b614c076020830184614140565b9392505050565b7f426c6f636b2068617368206e6f7420617661696c61626c6500000000000000005f82015250565b5f614c4260188361449b565b9150614c4d82614c0e565b602082019050919050565b5f6020820190508181035f830152614c6f81614c36565b9050919050565b5f614c8082613c6e565b9150614c8b83613c6e565b9250828202614c9981613c6e565b91508282048414831517614cb057614caf61467e565b5b5092915050565b5f60a082019050614cca5f830188613c77565b614cd76020830187613d73565b614ce46040830186614140565b614cf16060830185614140565b614cfe6080830184613c77565b9695505050505050565b7f426c6f636b20756e617661696c61626c650000000000000000000000000000005f82015250565b5f614d3c60118361449b565b9150614d4782614d08565b602082019050919050565b5f6020820190508181035f830152614d6981614d30565b9050919050565b5f819050919050565b5f819050919050565b614d93614d8e82614d70565b614d79565b82525050565b5f8160c01b9050919050565b5f614daf82614d99565b9050919050565b614dc7614dc282613e12565b614da5565b82525050565b5f819050919050565b614de7614de282613c6e565b614dcd565b82525050565b5f614df8828a614d82565b602082019150614e088289614db6565b600882019150614e188288614db6565b600882019150614e288287614db6565b600882019150614e388286614db6565b600882019150614e488285614db6565b600882019150614e588284614dd6565b60208201915081905098975050505050505050565b7f496e76616c6964206172726179730000000000000000000000000000000000005f82015250565b5f614ea1600e8361449b565b9150614eac82614e6d565b602082019050919050565b5f6020820190508181035f830152614ece81614e95565b9050919050565b7f4d75737420736574746c6520616c6c20626574732066697273740000000000005f82015250565b5f614f09601a8361449b565b9150614f1482614ed5565b602082019050919050565b5f6020820190508181035f830152614f3681614efd565b9050919050565b7f496e76616c6964206265740000000000000000000000000000000000000000005f82015250565b5f614f71600b8361449b565b9150614f7c82614f3d565b602082019050919050565b5f6020820190508181035f830152614f9e81614f65565b9050919050565b7f45786365656473207370696e206c696d697400000000000000000000000000005f82015250565b5f614fd960128361449b565b9150614fe482614fa5565b602082019050919050565b5f6020820190508181035f83015261500681614fcd565b9050919050565b7f496e73756666696369656e742062616e6b726f6c6c00000000000000000000005f82015250565b5f61504160158361449b565b915061504c8261500d565b602082019050919050565b5f6020820190508181035f83015261506e81615035565b9050919050565b61507e81613e12565b8114615088575f5ffd5b50565b5f8151905061509981615075565b92915050565b5f602082840312156150b4576150b3613b4e565b5b5f6150c18482850161508b565b91505092915050565b5f6080820190506150dd5f830187613c77565b6150ea6020830186614140565b6150f76040830185613c77565b6151046060830184613c77565b9594505050505056fea264697066735822122059be916cbf4e579ab097b8626280eddc593fbd38b01b0dd1167976b7d232077964736f6c634300081e0033",
        "linkReferences": {}
    },
    "methodIdentifiers": {
        "BLOCKS_DELAY()": "243e1239",
        "BTC_PERP_INDEX()": "afdece35",
        "ETH_PERP_INDEX()": "0b363656",
        "INSIDE_BET_PAYOUT()": "acece2d6",
        "OUTSIDE_BET_PAYOUT()": "f1868167",
        "betMarketData(address,uint256)": "706ff5ba",
        "bettingToken()": "43425e88",
        "canSettleBet(address,uint256)": "e4ecf257",
        "getAllUserBets(address)": "ba2abf26",
        "getGameAnalytics()": "e1d5cd14",
        "getSettleableBets(address)": "70bb44f6",
        "getUserBet(address,uint256)": "de87b07d",
        "getUserBetCount(address)": "b624010a",
        "l1Read()": "bc218482",
        "liquidityPool()": "665a11ca",
        "maxSpinAmount()": "ef9b8f7e",
        "owner()": "8da5cb5b",
        "pause()": "8456cb59",
        "paused()": "5c975abb",
        "placeBet(uint8,uint256)": "dcb3b30e",
        "placeMultipleBets(uint8[],uint256[])": "c14635ed",
        "renounceOwnership()": "715018a6",
        "rescueERC20(address,uint256)": "8cd4426d",
        "rescueETH()": "20800a00",
        "setMaxSpinAmount(uint256)": "28ec5bc0",
        "settleBet(address,uint256)": "b2e54ea9",
        "settleMultipleBets(address,uint256[])": "1874c640",
        "totalGameBetVolume()": "f222b92e",
        "totalGameInflows()": "7f154455",
        "totalGameOutflows()": "ef529dff",
        "transferOwnership(address)": "f2fde38b",
        "unpause()": "3f4ba83a",
        "userBets(address,uint256)": "8068aa68",
        "userSpinTotalWager(address,uint256)": "c9d9760e"
    },
    "id": 24
}