{
    "abi": [
        {
            "type": "constructor",
            "inputs": [
                {
                    "name": "_bettingTokenAddress",
                    "type": "address",
                    "internalType": "address"
                },
                {
                    "name": "_liquidityPoolAddress",
                    "type": "address",
                    "internalType": "address"
                },
                {
                    "name": "_initialMaxSpin",
                    "type": "uint256",
                    "internalType": "uint256"
                }
            ],
            "stateMutability": "nonpayable"
        },
        {
            "type": "function",
            "name": "BLOCKS_DELAY",
            "inputs": [],
            "outputs": [
                {
                    "name": "",
                    "type": "uint256",
                    "internalType": "uint256"
                }
            ],
            "stateMutability": "view"
        },
        {
            "type": "function",
            "name": "INSIDE_BET_PAYOUT",
            "inputs": [],
            "outputs": [
                {
                    "name": "",
                    "type": "uint256",
                    "internalType": "uint256"
                }
            ],
            "stateMutability": "view"
        },
        {
            "type": "function",
            "name": "OUTSIDE_BET_PAYOUT",
            "inputs": [],
            "outputs": [
                {
                    "name": "",
                    "type": "uint256",
                    "internalType": "uint256"
                }
            ],
            "stateMutability": "view"
        },
        {
            "type": "function",
            "name": "betBlockData",
            "inputs": [
                {
                    "name": "",
                    "type": "address",
                    "internalType": "address"
                },
                {
                    "name": "",
                    "type": "uint256",
                    "internalType": "uint256"
                }
            ],
            "outputs": [
                {
                    "name": "timestamp",
                    "type": "uint64",
                    "internalType": "uint64"
                },
                {
                    "name": "basefee",
                    "type": "uint64",
                    "internalType": "uint64"
                },
                {
                    "name": "chainid",
                    "type": "uint64",
                    "internalType": "uint64"
                }
            ],
            "stateMutability": "view"
        },
        {
            "type": "function",
            "name": "bettingToken",
            "inputs": [],
            "outputs": [
                {
                    "name": "",
                    "type": "address",
                    "internalType": "contract IERC20"
                }
            ],
            "stateMutability": "view"
        },
        {
            "type": "function",
            "name": "canSettleBet",
            "inputs": [
                {
                    "name": "user",
                    "type": "address",
                    "internalType": "address"
                },
                {
                    "name": "betIndex",
                    "type": "uint256",
                    "internalType": "uint256"
                }
            ],
            "outputs": [
                {
                    "name": "",
                    "type": "bool",
                    "internalType": "bool"
                }
            ],
            "stateMutability": "view"
        },
        {
            "type": "function",
            "name": "getAllUserBets",
            "inputs": [
                {
                    "name": "user",
                    "type": "address",
                    "internalType": "address"
                }
            ],
            "outputs": [
                {
                    "name": "guesses",
                    "type": "uint8[]",
                    "internalType": "uint8[]"
                },
                {
                    "name": "wagers",
                    "type": "uint256[]",
                    "internalType": "uint256[]"
                },
                {
                    "name": "targetBlocks",
                    "type": "uint256[]",
                    "internalType": "uint256[]"
                },
                {
                    "name": "settled",
                    "type": "bool[]",
                    "internalType": "bool[]"
                },
                {
                    "name": "won",
                    "type": "bool[]",
                    "internalType": "bool[]"
                },
                {
                    "name": "payouts",
                    "type": "uint256[]",
                    "internalType": "uint256[]"
                },
                {
                    "name": "firstHexs",
                    "type": "uint8[]",
                    "internalType": "uint8[]"
                },
                {
                    "name": "secondHexs",
                    "type": "uint8[]",
                    "internalType": "uint8[]"
                },
                {
                    "name": "isExpired",
                    "type": "bool[]",
                    "internalType": "bool[]"
                }
            ],
            "stateMutability": "view"
        },
        {
            "type": "function",
            "name": "getGameAnalytics",
            "inputs": [],
            "outputs": [
                {
                    "name": "totalInflows",
                    "type": "uint256",
                    "internalType": "uint256"
                },
                {
                    "name": "totalOutflows",
                    "type": "uint256",
                    "internalType": "uint256"
                },
                {
                    "name": "netProfit",
                    "type": "int256",
                    "internalType": "int256"
                },
                {
                    "name": "totalBetVolume",
                    "type": "uint256",
                    "internalType": "uint256"
                }
            ],
            "stateMutability": "view"
        },
        {
            "type": "function",
            "name": "getSettleableBets",
            "inputs": [
                {
                    "name": "user",
                    "type": "address",
                    "internalType": "address"
                }
            ],
            "outputs": [
                {
                    "name": "indices",
                    "type": "uint256[]",
                    "internalType": "uint256[]"
                },
                {
                    "name": "firstHexs",
                    "type": "uint8[]",
                    "internalType": "uint8[]"
                },
                {
                    "name": "secondHexs",
                    "type": "uint8[]",
                    "internalType": "uint8[]"
                },
                {
                    "name": "isExpired",
                    "type": "bool[]",
                    "internalType": "bool[]"
                }
            ],
            "stateMutability": "view"
        },
        {
            "type": "function",
            "name": "getUserBet",
            "inputs": [
                {
                    "name": "user",
                    "type": "address",
                    "internalType": "address"
                },
                {
                    "name": "betIndex",
                    "type": "uint256",
                    "internalType": "uint256"
                }
            ],
            "outputs": [
                {
                    "name": "guess",
                    "type": "uint8",
                    "internalType": "uint8"
                },
                {
                    "name": "wager",
                    "type": "uint256",
                    "internalType": "uint256"
                },
                {
                    "name": "targetBlock",
                    "type": "uint256",
                    "internalType": "uint256"
                },
                {
                    "name": "settled",
                    "type": "bool",
                    "internalType": "bool"
                },
                {
                    "name": "won",
                    "type": "bool",
                    "internalType": "bool"
                },
                {
                    "name": "payout",
                    "type": "uint256",
                    "internalType": "uint256"
                },
                {
                    "name": "firstHex",
                    "type": "uint8",
                    "internalType": "uint8"
                },
                {
                    "name": "secondHex",
                    "type": "uint8",
                    "internalType": "uint8"
                },
                {
                    "name": "isExpired",
                    "type": "bool",
                    "internalType": "bool"
                }
            ],
            "stateMutability": "view"
        },
        {
            "type": "function",
            "name": "getUserBetCount",
            "inputs": [
                {
                    "name": "user",
                    "type": "address",
                    "internalType": "address"
                }
            ],
            "outputs": [
                {
                    "name": "",
                    "type": "uint256",
                    "internalType": "uint256"
                }
            ],
            "stateMutability": "view"
        },
        {
            "type": "function",
            "name": "getUserUnsettledBetCount",
            "inputs": [
                {
                    "name": "user",
                    "type": "address",
                    "internalType": "address"
                }
            ],
            "outputs": [
                {
                    "name": "",
                    "type": "uint256",
                    "internalType": "uint256"
                }
            ],
            "stateMutability": "view"
        },
        {
            "type": "function",
            "name": "liquidityPool",
            "inputs": [],
            "outputs": [
                {
                    "name": "",
                    "type": "address",
                    "internalType": "contract LiquidityPool"
                }
            ],
            "stateMutability": "view"
        },
        {
            "type": "function",
            "name": "maxSpinAmount",
            "inputs": [],
            "outputs": [
                {
                    "name": "",
                    "type": "uint256",
                    "internalType": "uint256"
                }
            ],
            "stateMutability": "view"
        },
        {
            "type": "function",
            "name": "owner",
            "inputs": [],
            "outputs": [
                {
                    "name": "",
                    "type": "address",
                    "internalType": "address"
                }
            ],
            "stateMutability": "view"
        },
        {
            "type": "function",
            "name": "pause",
            "inputs": [],
            "outputs": [],
            "stateMutability": "nonpayable"
        },
        {
            "type": "function",
            "name": "paused",
            "inputs": [],
            "outputs": [
                {
                    "name": "",
                    "type": "bool",
                    "internalType": "bool"
                }
            ],
            "stateMutability": "view"
        },
        {
            "type": "function",
            "name": "placeBet",
            "inputs": [
                {
                    "name": "_guess",
                    "type": "uint8",
                    "internalType": "uint8"
                },
                {
                    "name": "_wager",
                    "type": "uint256",
                    "internalType": "uint256"
                }
            ],
            "outputs": [],
            "stateMutability": "nonpayable"
        },
        {
            "type": "function",
            "name": "placeMultipleBets",
            "inputs": [
                {
                    "name": "_guesses",
                    "type": "uint8[]",
                    "internalType": "uint8[]"
                },
                {
                    "name": "_wagers",
                    "type": "uint256[]",
                    "internalType": "uint256[]"
                }
            ],
            "outputs": [],
            "stateMutability": "nonpayable"
        },
        {
            "type": "function",
            "name": "renounceOwnership",
            "inputs": [],
            "outputs": [],
            "stateMutability": "nonpayable"
        },
        {
            "type": "function",
            "name": "rescueERC20",
            "inputs": [
                {
                    "name": "tokenAddress",
                    "type": "address",
                    "internalType": "address"
                },
                {
                    "name": "amount",
                    "type": "uint256",
                    "internalType": "uint256"
                }
            ],
            "outputs": [],
            "stateMutability": "nonpayable"
        },
        {
            "type": "function",
            "name": "rescueETH",
            "inputs": [],
            "outputs": [],
            "stateMutability": "nonpayable"
        },
        {
            "type": "function",
            "name": "setMaxSpinAmount",
            "inputs": [
                {
                    "name": "_newMaxSpin",
                    "type": "uint256",
                    "internalType": "uint256"
                }
            ],
            "outputs": [],
            "stateMutability": "nonpayable"
        },
        {
            "type": "function",
            "name": "settleBet",
            "inputs": [
                {
                    "name": "user",
                    "type": "address",
                    "internalType": "address"
                },
                {
                    "name": "betIndex",
                    "type": "uint256",
                    "internalType": "uint256"
                }
            ],
            "outputs": [],
            "stateMutability": "nonpayable"
        },
        {
            "type": "function",
            "name": "settleMultipleBets",
            "inputs": [
                {
                    "name": "user",
                    "type": "address",
                    "internalType": "address"
                },
                {
                    "name": "betIndices",
                    "type": "uint256[]",
                    "internalType": "uint256[]"
                }
            ],
            "outputs": [],
            "stateMutability": "nonpayable"
        },
        {
            "type": "function",
            "name": "totalGameBetVolume",
            "inputs": [],
            "outputs": [
                {
                    "name": "",
                    "type": "uint256",
                    "internalType": "uint256"
                }
            ],
            "stateMutability": "view"
        },
        {
            "type": "function",
            "name": "totalGameInflows",
            "inputs": [],
            "outputs": [
                {
                    "name": "",
                    "type": "uint256",
                    "internalType": "uint256"
                }
            ],
            "stateMutability": "view"
        },
        {
            "type": "function",
            "name": "totalGameOutflows",
            "inputs": [],
            "outputs": [
                {
                    "name": "",
                    "type": "uint256",
                    "internalType": "uint256"
                }
            ],
            "stateMutability": "view"
        },
        {
            "type": "function",
            "name": "transferOwnership",
            "inputs": [
                {
                    "name": "newOwner",
                    "type": "address",
                    "internalType": "address"
                }
            ],
            "outputs": [],
            "stateMutability": "nonpayable"
        },
        {
            "type": "function",
            "name": "unpause",
            "inputs": [],
            "outputs": [],
            "stateMutability": "nonpayable"
        },
        {
            "type": "function",
            "name": "unsettledBetsByBlock",
            "inputs": [
                {
                    "name": "",
                    "type": "address",
                    "internalType": "address"
                },
                {
                    "name": "",
                    "type": "uint256",
                    "internalType": "uint256"
                },
                {
                    "name": "",
                    "type": "uint256",
                    "internalType": "uint256"
                }
            ],
            "outputs": [
                {
                    "name": "",
                    "type": "uint256",
                    "internalType": "uint256"
                }
            ],
            "stateMutability": "view"
        },
        {
            "type": "function",
            "name": "userBets",
            "inputs": [
                {
                    "name": "",
                    "type": "address",
                    "internalType": "address"
                },
                {
                    "name": "",
                    "type": "uint256",
                    "internalType": "uint256"
                }
            ],
            "outputs": [
                {
                    "name": "guess",
                    "type": "uint8",
                    "internalType": "uint8"
                },
                {
                    "name": "wager",
                    "type": "uint256",
                    "internalType": "uint256"
                },
                {
                    "name": "targetBlock",
                    "type": "uint256",
                    "internalType": "uint256"
                },
                {
                    "name": "settled",
                    "type": "bool",
                    "internalType": "bool"
                },
                {
                    "name": "won",
                    "type": "bool",
                    "internalType": "bool"
                },
                {
                    "name": "payout",
                    "type": "uint256",
                    "internalType": "uint256"
                },
                {
                    "name": "firstHex",
                    "type": "uint8",
                    "internalType": "uint8"
                },
                {
                    "name": "secondHex",
                    "type": "uint8",
                    "internalType": "uint8"
                },
                {
                    "name": "isExpired",
                    "type": "bool",
                    "internalType": "bool"
                }
            ],
            "stateMutability": "view"
        },
        {
            "type": "function",
            "name": "userSpinTotalWager",
            "inputs": [
                {
                    "name": "",
                    "type": "address",
                    "internalType": "address"
                },
                {
                    "name": "",
                    "type": "uint256",
                    "internalType": "uint256"
                }
            ],
            "outputs": [
                {
                    "name": "",
                    "type": "uint256",
                    "internalType": "uint256"
                }
            ],
            "stateMutability": "view"
        },
        {
            "type": "function",
            "name": "userUnsettledBetCount",
            "inputs": [
                {
                    "name": "",
                    "type": "address",
                    "internalType": "address"
                }
            ],
            "outputs": [
                {
                    "name": "",
                    "type": "uint256",
                    "internalType": "uint256"
                }
            ],
            "stateMutability": "view"
        },
        {
            "type": "function",
            "name": "userUnsettledTargetBlocks",
            "inputs": [
                {
                    "name": "",
                    "type": "address",
                    "internalType": "address"
                },
                {
                    "name": "",
                    "type": "uint256",
                    "internalType": "uint256"
                }
            ],
            "outputs": [
                {
                    "name": "",
                    "type": "uint256",
                    "internalType": "uint256"
                }
            ],
            "stateMutability": "view"
        },
        {
            "type": "event",
            "name": "BetExpired",
            "inputs": [
                {
                    "name": "betId",
                    "type": "uint256",
                    "indexed": true,
                    "internalType": "uint256"
                },
                {
                    "name": "user",
                    "type": "address",
                    "indexed": true,
                    "internalType": "address"
                },
                {
                    "name": "amount",
                    "type": "uint256",
                    "indexed": false,
                    "internalType": "uint256"
                },
                {
                    "name": "betType",
                    "type": "uint8",
                    "indexed": false,
                    "internalType": "uint8"
                }
            ],
            "anonymous": false
        },
        {
            "type": "event",
            "name": "BetPlaced",
            "inputs": [
                {
                    "name": "user",
                    "type": "address",
                    "indexed": true,
                    "internalType": "address"
                },
                {
                    "name": "betIndex",
                    "type": "uint256",
                    "indexed": false,
                    "internalType": "uint256"
                },
                {
                    "name": "guess",
                    "type": "uint8",
                    "indexed": false,
                    "internalType": "uint8"
                },
                {
                    "name": "wager",
                    "type": "uint256",
                    "indexed": false,
                    "internalType": "uint256"
                },
                {
                    "name": "targetBlock",
                    "type": "uint256",
                    "indexed": false,
                    "internalType": "uint256"
                }
            ],
            "anonymous": false
        },
        {
            "type": "event",
            "name": "BetSettled",
            "inputs": [
                {
                    "name": "user",
                    "type": "address",
                    "indexed": true,
                    "internalType": "address"
                },
                {
                    "name": "betIndex",
                    "type": "uint256",
                    "indexed": false,
                    "internalType": "uint256"
                },
                {
                    "name": "won",
                    "type": "bool",
                    "indexed": false,
                    "internalType": "bool"
                },
                {
                    "name": "firstHex",
                    "type": "uint8",
                    "indexed": false,
                    "internalType": "uint8"
                },
                {
                    "name": "secondHex",
                    "type": "uint8",
                    "indexed": false,
                    "internalType": "uint8"
                },
                {
                    "name": "payout",
                    "type": "uint256",
                    "indexed": false,
                    "internalType": "uint256"
                }
            ],
            "anonymous": false
        },
        {
            "type": "event",
            "name": "ContractPaused",
            "inputs": [
                {
                    "name": "by",
                    "type": "address",
                    "indexed": true,
                    "internalType": "address"
                }
            ],
            "anonymous": false
        },
        {
            "type": "event",
            "name": "ContractUnpaused",
            "inputs": [
                {
                    "name": "by",
                    "type": "address",
                    "indexed": true,
                    "internalType": "address"
                }
            ],
            "anonymous": false
        },
        {
            "type": "event",
            "name": "OwnershipTransferred",
            "inputs": [
                {
                    "name": "previousOwner",
                    "type": "address",
                    "indexed": true,
                    "internalType": "address"
                },
                {
                    "name": "newOwner",
                    "type": "address",
                    "indexed": true,
                    "internalType": "address"
                }
            ],
            "anonymous": false
        },
        {
            "type": "event",
            "name": "WinningsClaimed",
            "inputs": [
                {
                    "name": "user",
                    "type": "address",
                    "indexed": true,
                    "internalType": "address"
                },
                {
                    "name": "amount",
                    "type": "uint256",
                    "indexed": false,
                    "internalType": "uint256"
                }
            ],
            "anonymous": false
        },
        {
            "type": "error",
            "name": "OwnableInvalidOwner",
            "inputs": [
                {
                    "name": "owner",
                    "type": "address",
                    "internalType": "address"
                }
            ]
        },
        {
            "type": "error",
            "name": "OwnableUnauthorizedAccount",
            "inputs": [
                {
                    "name": "account",
                    "type": "address",
                    "internalType": "address"
                }
            ]
        }
    ],
    "bytecode": {
        "object": "0x60c060405234801561000f575f5ffd5b506040516157bc3803806157bc8339818101604052810190610031919061027b565b335f73ffffffffffffffffffffffffffffffffffffffff168173ffffffffffffffffffffffffffffffffffffffff16036100a2575f6040517f1e4fbdf700000000000000000000000000000000000000000000000000000000815260040161009991906102da565b60405180910390fd5b6100b18161012960201b60201c565b508273ffffffffffffffffffffffffffffffffffffffff1660808173ffffffffffffffffffffffffffffffffffffffff16815250508173ffffffffffffffffffffffffffffffffffffffff1660a08173ffffffffffffffffffffffffffffffffffffffff1681525050806007819055505050506102f3565b5f5f5f9054906101000a900473ffffffffffffffffffffffffffffffffffffffff169050815f5f6101000a81548173ffffffffffffffffffffffffffffffffffffffff021916908373ffffffffffffffffffffffffffffffffffffffff1602179055508173ffffffffffffffffffffffffffffffffffffffff168173ffffffffffffffffffffffffffffffffffffffff167f8be0079c531659141344cd1fd0a4f28419497f9722a3daafe3b4186f6b6457e060405160405180910390a35050565b5f5ffd5b5f73ffffffffffffffffffffffffffffffffffffffff82169050919050565b5f610217826101ee565b9050919050565b6102278161020d565b8114610231575f5ffd5b50565b5f815190506102428161021e565b92915050565b5f819050919050565b61025a81610248565b8114610264575f5ffd5b50565b5f8151905061027581610251565b92915050565b5f5f5f60608486031215610292576102916101ea565b5b5f61029f86828701610234565b93505060206102b086828701610234565b92505060406102c186828701610267565b9150509250925092565b6102d48161020d565b82525050565b5f6020820190506102ed5f8301846102cb565b92915050565b60805160a05161548c6103305f395f818161097501528181612af101528181613190015261326701525f818161093f0152611482015261548c5ff3fe608060405234801561000f575f5ffd5b506004361061020f575f3560e01c8063acece2d611610123578063de87b07d116100ab578063ef9b8f7e1161007a578063ef9b8f7e14610621578063f18681671461063f578063f222b92e1461065d578063f2fde38b1461067b578063ff923270146106975761020f565b8063de87b07d1461057a578063e1d5cd14146105b2578063e4ecf257146105d3578063ef529dff146106035761020f565b8063ba2abf26116100f2578063ba2abf26146104a8578063c14635ed146104e0578063c68f1356146104fc578063c9d9760e1461052e578063dcb3b30e1461055e5761020f565b8063acece2d61461040e578063b2e54ea91461042c578063b59d221f14610448578063b624010a146104785761020f565b80635c975abb116101a65780637f154455116101755780637f154455146103745780638068aa68146103925780638456cb59146103ca5780638cd4426d146103d45780638da5cb5b146103f05761020f565b80635c975abb146102fb578063665a11ca1461031957806370bb44f614610337578063715018a61461036a5761020f565b806328ec5bc0116101e257806328ec5bc0146102875780632f2fa776146102a35780633f4ba83a146102d357806343425e88146102dd5761020f565b80631874c6401461021357806320800a001461022f578063243e1239146102395780632664c25a14610257575b5f5ffd5b61022d60048036038101906102289190613eaf565b6106c7565b005b610237610716565b005b610241610817565b60405161024e9190613f24565b60405180910390f35b610271600480360381019061026c9190613f3d565b61081c565b60405161027e9190613f24565b60405180910390f35b6102a1600480360381019061029c9190613f92565b610862565b005b6102bd60048036038101906102b89190613f3d565b610874565b6040516102ca9190613f24565b60405180910390f35b6102db610889565b005b6102e561093d565b6040516102f29190614018565b60405180910390f35b610303610961565b604051610310919061404b565b60405180910390f35b610321610973565b60405161032e9190614084565b60405180910390f35b610351600480360381019061034c9190613f3d565b610997565b60405161036194939291906142ce565b60405180910390f35b610372611280565b005b61037c611293565b6040516103899190613f24565b60405180910390f35b6103ac60048036038101906103a7919061432d565b611299565b6040516103c19998979695949392919061437a565b60405180910390f35b6103d2611348565b005b6103ee60048036038101906103e9919061432d565b6113fe565b005b6103f861167b565b6040516104059190614414565b60405180910390f35b6104166116a2565b6040516104239190613f24565b60405180910390f35b6104466004803603810190610441919061432d565b6116a7565b005b610462600480360381019061045d919061432d565b611723565b60405161046f9190613f24565b60405180910390f35b610492600480360381019061048d9190613f3d565b61174e565b60405161049f9190613f24565b60405180910390f35b6104c260048036038101906104bd9190613f3d565b611797565b6040516104d79998979695949392919061442d565b60405180910390f35b6104fa60048036038101906104f5919061454c565b611d50565b005b6105166004803603810190610511919061432d565b611e2f565b604051610525939291906145ec565b60405180910390f35b6105486004803603810190610543919061432d565b611e99565b6040516105559190613f24565b60405180910390f35b6105786004803603810190610573919061464b565b611eb9565b005b610594600480360381019061058f919061432d565b611ffa565b6040516105a99998979695949392919061437a565b60405180910390f35b6105ba6121fe565b6040516105ca94939291906146a1565b60405180910390f35b6105ed60048036038101906105e8919061432d565b612225565b6040516105fa919061404b565b60405180910390f35b61060b6123c0565b6040516106189190613f24565b60405180910390f35b6106296123c6565b6040516106369190613f24565b60405180910390f35b6106476123cc565b6040516106549190613f24565b60405180910390f35b6106656123d1565b6040516106729190613f24565b60405180910390f35b61069560048036038101906106909190613f3d565b6123d7565b005b6106b160048036038101906106ac91906146e4565b61245b565b6040516106be9190613f24565b60405180910390f35b610711838383808060200260200160405190810160405280939291908181526020018383602002808284375f81840152601f19601f82011690508083019250505050505050612491565b505050565b61071e612be3565b5f4790505f8111610764576040517f08c379a000000000000000000000000000000000000000000000000000000000815260040161075b9061478e565b60405180910390fd5b5f61076d61167b565b73ffffffffffffffffffffffffffffffffffffffff1682604051610790906147d9565b5f6040518083038185875af1925050503d805f81146107ca576040519150601f19603f3d011682016040523d82523d5f602084013e6107cf565b606091505b5050905080610813576040517f08c379a000000000000000000000000000000000000000000000000000000000815260040161080a90614837565b60405180910390fd5b5050565b600a81565b5f60045f8373ffffffffffffffffffffffffffffffffffffffff1673ffffffffffffffffffffffffffffffffffffffff1681526020019081526020015f20549050919050565b61086a612be3565b8060078190555050565b6004602052805f5260405f205f915090505481565b610891612be3565b60085f9054906101000a900460ff166108df576040517f08c379a00000000000000000000000000000000000000000000000000000000081526004016108d69061489f565b60405180910390fd5b5f60085f6101000a81548160ff0219169083151502179055503373ffffffffffffffffffffffffffffffffffffffff167f5b65b0c1363b3003db9bcc5e1fd8805a6d6bf5bf6dc9d3431ee4494cd7d1176660405160405180910390a2565b7f000000000000000000000000000000000000000000000000000000000000000081565b60085f9054906101000a900460ff1681565b7f000000000000000000000000000000000000000000000000000000000000000081565b6060806060805f60065f8773ffffffffffffffffffffffffffffffffffffffff1673ffffffffffffffffffffffffffffffffffffffff1681526020019081526020015f20805480602002602001604051908101604052809291908181526020018280548015610a2357602002820191905f5260205f20905b815481526020019060010190808311610a0f575b505050505090505f5f90505f5f90505b8251811015610ace575f838281518110610a5057610a4f6148bd565b5b6020026020010151905080431115610ac05760055f8a73ffffffffffffffffffffffffffffffffffffffff1673ffffffffffffffffffffffffffffffffffffffff1681526020019081526020015f205f8281526020019081526020015f208054905083610abd9190614917565b92505b508080600101915050610a33565b505f8103610c09575f67ffffffffffffffff811115610af057610aef61494a565b5b604051908082528060200260200182016040528015610b1e5781602001602082028036833780820191505090505b505f67ffffffffffffffff811115610b3957610b3861494a565b5b604051908082528060200260200182016040528015610b675781602001602082028036833780820191505090505b505f67ffffffffffffffff811115610b8257610b8161494a565b5b604051908082528060200260200182016040528015610bb05781602001602082028036833780820191505090505b505f67ffffffffffffffff811115610bcb57610bca61494a565b5b604051908082528060200260200182016040528015610bf95781602001602082028036833780820191505090505b5095509550955095505050611279565b8067ffffffffffffffff811115610c2357610c2261494a565b5b604051908082528060200260200182016040528015610c515781602001602082028036833780820191505090505b5095508067ffffffffffffffff811115610c6e57610c6d61494a565b5b604051908082528060200260200182016040528015610c9c5781602001602082028036833780820191505090505b5094508067ffffffffffffffff811115610cb957610cb861494a565b5b604051908082528060200260200182016040528015610ce75781602001602082028036833780820191505090505b5093508067ffffffffffffffff811115610d0457610d0361494a565b5b604051908082528060200260200182016040528015610d325781602001602082028036833780820191505090505b5092505f5f90505f5f90505b835181101561100b575f848281518110610d5b57610d5a6148bd565b5b6020026020010151905080431115610ffd575f60055f8c73ffffffffffffffffffffffffffffffffffffffff1673ffffffffffffffffffffffffffffffffffffffff1681526020019081526020015f205f8381526020019081526020015f20805480602002602001604051908101604052809291908181526020018280548015610e0257602002820191905f5260205f20905b815481526020019060010190808311610dee575b505050505090505f5f90505b8151811015610ffa575f828281518110610e2b57610e2a6148bd565b5b6020026020010151905060015f8e73ffffffffffffffffffffffffffffffffffffffff1673ffffffffffffffffffffffffffffffffffffffff1681526020019081526020015f208181548110610e8457610e836148bd565b5b905f5260205f2090600602016003015f9054906101000a900460ff16610fec57808c8781518110610eb857610eb76148bd565b5b60200260200101818152505061010084610ed29190614917565b4311610f65575f610ee48e8387612c6a565b9050610eef81612deb565b8d8981518110610f0257610f016148bd565b5b602002602001018d8a81518110610f1c57610f1b6148bd565b5b602002602001018260ff1660ff168152508260ff1660ff1681525050505f8a8881518110610f4d57610f4c6148bd565b5b60200260200101901515908115158152505050610fdd565b5f8b8781518110610f7957610f786148bd565b5b602002602001019060ff16908160ff16815250505f8a8781518110610fa157610fa06148bd565b5b602002602001019060ff16908160ff16815250506001898781518110610fca57610fc96148bd565b5b6020026020010190151590811515815250505b8580610fe890614977565b9650505b508080600101915050610e0e565b50505b508080600101915050610d3e565b5081811015611275575f8167ffffffffffffffff81111561102f5761102e61494a565b5b60405190808252806020026020018201604052801561105d5781602001602082028036833780820191505090505b5090505f8267ffffffffffffffff81111561107b5761107a61494a565b5b6040519080825280602002602001820160405280156110a95781602001602082028036833780820191505090505b5090505f8367ffffffffffffffff8111156110c7576110c661494a565b5b6040519080825280602002602001820160405280156110f55781602001602082028036833780820191505090505b5090505f8467ffffffffffffffff8111156111135761111261494a565b5b6040519080825280602002602001820160405280156111415781602001602082028036833780820191505090505b5090505f5f90505b8581101561125c578b8181518110611164576111636148bd565b5b602002602001015185828151811061117f5761117e6148bd565b5b6020026020010181815250508a818151811061119e5761119d6148bd565b5b60200260200101518482815181106111b9576111b86148bd565b5b602002602001019060ff16908160ff16815250508981815181106111e0576111df6148bd565b5b60200260200101518382815181106111fb576111fa6148bd565b5b602002602001019060ff16908160ff1681525050888181518110611222576112216148bd565b5b602002602001015182828151811061123d5761123c6148bd565b5b6020026020010190151590811515815250508080600101915050611149565b50838383839a509a509a509a5050505050505050611279565b5050505b9193509193565b611288612be3565b6112915f612e0c565b565b60095481565b6001602052815f5260405f2081815481106112b2575f80fd5b905f5260205f2090600602015f9150915050805f015f9054906101000a900460ff1690806001015490806002015490806003015f9054906101000a900460ff16908060030160019054906101000a900460ff1690806004015490806005015f9054906101000a900460ff16908060050160019054906101000a900460ff16908060050160029054906101000a900460ff16905089565b611350612be3565b60085f9054906101000a900460ff161561139f576040517f08c379a000000000000000000000000000000000000000000000000000000000815260040161139690614a08565b60405180910390fd5b600160085f6101000a81548160ff0219169083151502179055503373ffffffffffffffffffffffffffffffffffffffff167f81990fd9a5c552b8e3677917d8a03c07678f0d2cb68f88b634aca2022e9bd19f60405160405180910390a2565b611406612be3565b5f73ffffffffffffffffffffffffffffffffffffffff168273ffffffffffffffffffffffffffffffffffffffff161415801561144157505f81115b611480576040517f08c379a000000000000000000000000000000000000000000000000000000000815260040161147790614a70565b60405180910390fd5b7f000000000000000000000000000000000000000000000000000000000000000073ffffffffffffffffffffffffffffffffffffffff168273ffffffffffffffffffffffffffffffffffffffff160361150e576040517f08c379a000000000000000000000000000000000000000000000000000000000815260040161150590614ad8565b60405180910390fd5b5f5f8373ffffffffffffffffffffffffffffffffffffffff1661152f61167b565b84604051602401611541929190614af6565b6040516020818303038152906040527fa9059cbb000000000000000000000000000000000000000000000000000000007bffffffffffffffffffffffffffffffffffffffffffffffffffffffff19166020820180517bffffffffffffffffffffffffffffffffffffffffffffffffffffffff83818316178352505050506040516115cb9190614b65565b5f604051808303815f865af19150503d805f8114611604576040519150601f19603f3d011682016040523d82523d5f602084013e611609565b606091505b509150915081801561163657505f815114806116355750808060200190518101906116349190614ba5565b5b5b611675576040517f08c379a000000000000000000000000000000000000000000000000000000000815260040161166c90614c1a565b60405180910390fd5b50505050565b5f5f5f9054906101000a900473ffffffffffffffffffffffffffffffffffffffff16905090565b600f81565b5f600167ffffffffffffffff8111156116c3576116c261494a565b5b6040519080825280602002602001820160405280156116f15781602001602082028036833780820191505090505b50905081815f81518110611708576117076148bd565b5b60200260200101818152505061171e8382612491565b505050565b6006602052815f5260405f20818154811061173c575f80fd5b905f5260205f20015f91509150505481565b5f60015f8373ffffffffffffffffffffffffffffffffffffffff1673ffffffffffffffffffffffffffffffffffffffff1681526020019081526020015f20805490509050919050565b60608060608060608060608060605f60015f8c73ffffffffffffffffffffffffffffffffffffffff1673ffffffffffffffffffffffffffffffffffffffff1681526020019081526020015f208054905090508067ffffffffffffffff8111156118035761180261494a565b5b6040519080825280602002602001820160405280156118315781602001602082028036833780820191505090505b5099508067ffffffffffffffff81111561184e5761184d61494a565b5b60405190808252806020026020018201604052801561187c5781602001602082028036833780820191505090505b5098508067ffffffffffffffff8111156118995761189861494a565b5b6040519080825280602002602001820160405280156118c75781602001602082028036833780820191505090505b5097508067ffffffffffffffff8111156118e4576118e361494a565b5b6040519080825280602002602001820160405280156119125781602001602082028036833780820191505090505b5096508067ffffffffffffffff81111561192f5761192e61494a565b5b60405190808252806020026020018201604052801561195d5781602001602082028036833780820191505090505b5095508067ffffffffffffffff81111561197a5761197961494a565b5b6040519080825280602002602001820160405280156119a85781602001602082028036833780820191505090505b5094508067ffffffffffffffff8111156119c5576119c461494a565b5b6040519080825280602002602001820160405280156119f35781602001602082028036833780820191505090505b5093508067ffffffffffffffff811115611a1057611a0f61494a565b5b604051908082528060200260200182016040528015611a3e5781602001602082028036833780820191505090505b5092508067ffffffffffffffff811115611a5b57611a5a61494a565b5b604051908082528060200260200182016040528015611a895781602001602082028036833780820191505090505b5091505f5f90505b81811015611d41575f60015f8e73ffffffffffffffffffffffffffffffffffffffff1673ffffffffffffffffffffffffffffffffffffffff1681526020019081526020015f208281548110611ae957611ae86148bd565b5b905f5260205f209060060201604051806101200160405290815f82015f9054906101000a900460ff1660ff1660ff1681526020016001820154815260200160028201548152602001600382015f9054906101000a900460ff161515151581526020016003820160019054906101000a900460ff1615151515815260200160048201548152602001600582015f9054906101000a900460ff1660ff1660ff1681526020016005820160019054906101000a900460ff1660ff1660ff1681526020016005820160029054906101000a900460ff1615151515815250509050805f01518c8381518110611bdc57611bdb6148bd565b5b602002602001019060ff16908160ff168152505080602001518b8381518110611c0857611c076148bd565b5b60200260200101818152505080604001518a8381518110611c2c57611c2b6148bd565b5b6020026020010181815250508060600151898381518110611c5057611c4f6148bd565b5b6020026020010190151590811515815250508060800151888381518110611c7a57611c796148bd565b5b6020026020010190151590811515815250508060a00151878381518110611ca457611ca36148bd565b5b6020026020010181815250508060c00151868381518110611cc857611cc76148bd565b5b602002602001019060ff16908160ff16815250508060e00151858381518110611cf457611cf36148bd565b5b602002602001019060ff16908160ff1681525050806101000151848381518110611d2157611d206148bd565b5b602002602001019015159081151581525050508080600101915050611a91565b50509193959799909294969850565b60085f9054906101000a900460ff1615611d9f576040517f08c379a0000000000000000000000000000000000000000000000000000000008152600401611d9690614c82565b60405180910390fd5b611e298484808060200260200160405190810160405280939291908181526020018383602002808284375f81840152601f19601f820116905080830192505050505050508383808060200260200160405190810160405280939291908181526020018383602002808284375f81840152601f19601f82011690508083019250505050505050612ecd565b50505050565b6003602052815f5260405f20602052805f5260405f205f9150915050805f015f9054906101000a900467ffffffffffffffff1690805f0160089054906101000a900467ffffffffffffffff1690805f0160109054906101000a900467ffffffffffffffff16905083565b6002602052815f5260405f20602052805f5260405f205f91509150505481565b60085f9054906101000a900460ff1615611f08576040517f08c379a0000000000000000000000000000000000000000000000000000000008152600401611eff90614c82565b60405180910390fd5b5f600167ffffffffffffffff811115611f2457611f2361494a565b5b604051908082528060200260200182016040528015611f525781602001602082028036833780820191505090505b5090505f600167ffffffffffffffff811115611f7157611f7061494a565b5b604051908082528060200260200182016040528015611f9f5781602001602082028036833780820191505090505b50905083825f81518110611fb657611fb56148bd565b5b602002602001019060ff16908160ff168152505082815f81518110611fde57611fdd6148bd565b5b602002602001018181525050611ff48282612ecd565b50505050565b5f5f5f5f5f5f5f5f5f60015f8c73ffffffffffffffffffffffffffffffffffffffff1673ffffffffffffffffffffffffffffffffffffffff1681526020019081526020015f20805490508a10612085576040517f08c379a000000000000000000000000000000000000000000000000000000000815260040161207c90614cea565b60405180910390fd5b5f60015f8d73ffffffffffffffffffffffffffffffffffffffff1673ffffffffffffffffffffffffffffffffffffffff1681526020019081526020015f208b815481106120d5576120d46148bd565b5b905f5260205f209060060201604051806101200160405290815f82015f9054906101000a900460ff1660ff1660ff1681526020016001820154815260200160028201548152602001600382015f9054906101000a900460ff161515151581526020016003820160019054906101000a900460ff1615151515815260200160048201548152602001600582015f9054906101000a900460ff1660ff1660ff1681526020016005820160019054906101000a900460ff1660ff1660ff1681526020016005820160029054906101000a900460ff1615151515815250509050805f015181602001518260400151836060015184608001518560a001518660c001518760e00151886101000151995099509950995099509950995099509950509295985092959850929598565b5f5f5f5f6009549350600a54925082846122189190614d08565b9150600b54905090919293565b5f60015f8473ffffffffffffffffffffffffffffffffffffffff1673ffffffffffffffffffffffffffffffffffffffff1681526020019081526020015f20805490508210612275575f90506123ba565b5f60015f8573ffffffffffffffffffffffffffffffffffffffff1673ffffffffffffffffffffffffffffffffffffffff1681526020019081526020015f2083815481106122c5576122c46148bd565b5b905f5260205f209060060201604051806101200160405290815f82015f9054906101000a900460ff1660ff1660ff1681526020016001820154815260200160028201548152602001600382015f9054906101000a900460ff161515151581526020016003820160019054906101000a900460ff1615151515815260200160048201548152602001600582015f9054906101000a900460ff1660ff1660ff1681526020016005820160019054906101000a900460ff1660ff1660ff1681526020016005820160029054906101000a900460ff161515151581525050905080606001511580156123b65750806040015143115b9150505b92915050565b600a5481565b60075481565b600281565b600b5481565b6123df612be3565b5f73ffffffffffffffffffffffffffffffffffffffff168173ffffffffffffffffffffffffffffffffffffffff160361244f575f6040517f1e4fbdf70000000000000000000000000000000000000000000000000000000081526004016124469190614414565b60405180910390fd5b61245881612e0c565b50565b6005602052825f5260405f20602052815f5260405f20818154811061247e575f80fd5b905f5260205f20015f9250925050505481565b5f81511180156124a357506032815111155b6124e2576040517f08c379a00000000000000000000000000000000000000000000000000000000081526004016124d990614d92565b60405180910390fd5b5f5f90505f5f90505b8251811015612ae6575f838281518110612508576125076148bd565b5b6020026020010151905060015f8673ffffffffffffffffffffffffffffffffffffffff1673ffffffffffffffffffffffffffffffffffffffff1681526020019081526020015f20805490508110612594576040517f08c379a000000000000000000000000000000000000000000000000000000000815260040161258b90614cea565b60405180910390fd5b5f60015f8773ffffffffffffffffffffffffffffffffffffffff1673ffffffffffffffffffffffffffffffffffffffff1681526020019081526020015f2082815481106125e4576125e36148bd565b5b905f5260205f2090600602019050806003015f9054906101000a900460ff1615612643576040517f08c379a000000000000000000000000000000000000000000000000000000000815260040161263a90614dfa565b60405180910390fd5b80600201544311612689576040517f08c379a000000000000000000000000000000000000000000000000000000000815260040161268090614e62565b60405180910390fd5b6001816003015f6101000a81548160ff0219169083151502179055506126b4868383600201546138c4565b61010081600201546126c69190614917565b4311156127b1575f8160030160016101000a81548160ff0219169083151502179055505f81600401819055505f816005015f6101000a81548160ff021916908360ff1602179055505f8160050160016101000a81548160ff021916908360ff16021790555060018160050160026101000a81548160ff0219169083151502179055508573ffffffffffffffffffffffffffffffffffffffff16827fec03f031b656385f7def1be4d192c091c0dab007ca2be1019090cd0027210ebf8360010154845f015f9054906101000a900460ff166040516127a4929190614e80565b60405180910390a3612a12565b5f8160050160026101000a81548160ff0219169083151502179055505f81600201544090505f5f1b810361281a576040517f08c379a000000000000000000000000000000000000000000000000000000000815260040161281190614ef1565b60405180910390fd5b5f61282a88858560020154612c6a565b90505f600f821690505f600f600484901c1690505f8260ff168260ff161490505f81801561285a57505f8460ff16145b905082876005015f6101000a81548160ff021916908360ff160217905550838760050160016101000a81548160ff021916908360ff1602179055506011875f015f9054906101000a900460ff1660ff16106128c0576128bb87858484613b54565b612a0b565b6010875f015f9054906101000a900460ff1660ff160361293457801580156128e55750815b156129255760018760030160016101000a81548160ff021916908315150217905550600f87600101546129189190614f0f565b876004018190555061292f565b5f87600401819055505b612a0a565b81156129a7575f875f015f9054906101000a900460ff1660ff161480156129585750805b156129985760018760030160016101000a81548160ff021916908315150217905550600f876001015461298b9190614f0f565b87600401819055506129a2565b5f87600401819055505b612a09565b8360ff16875f015f9054906101000a900460ff1660ff16036129fe5760018760030160016101000a81548160ff021916908315150217905550600f87600101546129f19190614f0f565b8760040181905550612a08565b5f87600401819055505b5b5b5b5050505050505b8060030160019054906101000a900460ff168015612a3357505f8160040154115b15612a4b57806004015484612a489190614917565b93505b8573ffffffffffffffffffffffffffffffffffffffff167f7c8824838be586f6285b14a62352482a92e05f6987c351476265a21e8d620311838360030160019054906101000a900460ff16846005015f9054906101000a900460ff168560050160019054906101000a900460ff168660040154604051612acf959493929190614f50565b60405180910390a2505080806001019150506124eb565b505f811115612bde577f000000000000000000000000000000000000000000000000000000000000000073ffffffffffffffffffffffffffffffffffffffff1663e8012eef84836040518363ffffffff1660e01b8152600401612b4a929190614af6565b5f604051808303815f87803b158015612b61575f5ffd5b505af1158015612b73573d5f5f3e3d5ffd5b5050505080600a5f828254612b889190614917565b925050819055508273ffffffffffffffffffffffffffffffffffffffff167f1a31e733a172afcf46074b3106c17f0c298e226442682a03c1e99ce256139ec282604051612bd59190613f24565b60405180910390a25b505050565b612beb613d01565b73ffffffffffffffffffffffffffffffffffffffff16612c0961167b565b73ffffffffffffffffffffffffffffffffffffffff1614612c6857612c2c613d01565b6040517f118cdaa7000000000000000000000000000000000000000000000000000000008152600401612c5f9190614414565b60405180910390fd5b565b5f5f824090505f5f1b8103612cb4576040517f08c379a0000000000000000000000000000000000000000000000000000000008152600401612cab90614feb565b60405180910390fd5b5f60035f8773ffffffffffffffffffffffffffffffffffffffff1673ffffffffffffffffffffffffffffffffffffffff1681526020019081526020015f205f8681526020019081526020015f206040518060600160405290815f82015f9054906101000a900467ffffffffffffffff1667ffffffffffffffff1667ffffffffffffffff1681526020015f820160089054906101000a900467ffffffffffffffff1667ffffffffffffffff1667ffffffffffffffff1681526020015f820160109054906101000a900467ffffffffffffffff1667ffffffffffffffff1667ffffffffffffffff1681525050905081815f015182602001518360400151878a41604051602001612dc89796959493929190615104565b604051602081830303815290604052805190602001205f1c925050509392505050565b5f5f5f600f841690505f600f600486901c1690508082935093505050915091565b5f5f5f9054906101000a900473ffffffffffffffffffffffffffffffffffffffff169050815f5f6101000a81548173ffffffffffffffffffffffffffffffffffffffff021916908373ffffffffffffffffffffffffffffffffffffffff1602179055508173ffffffffffffffffffffffffffffffffffffffff168173ffffffffffffffffffffffffffffffffffffffff167f8be0079c531659141344cd1fd0a4f28419497f9722a3daafe3b4186f6b6457e060405160405180910390a35050565b80518251148015612ede57505f8251115b8015612eec57506032825111155b612f2b576040517f08c379a0000000000000000000000000000000000000000000000000000000008152600401612f22906151ce565b60405180910390fd5b5f60045f3373ffffffffffffffffffffffffffffffffffffffff1673ffffffffffffffffffffffffffffffffffffffff1681526020019081526020015f205414612faa576040517f08c379a0000000000000000000000000000000000000000000000000000000008152600401612fa190615236565b60405180910390fd5b5f600a43612fb89190614917565b90505f60025f3373ffffffffffffffffffffffffffffffffffffffff1673ffffffffffffffffffffffffffffffffffffffff1681526020019081526020015f205f8381526020019081526020015f205490505f5f90505f5f90505f5f90505b865181101561313d576016878281518110613035576130346148bd565b5b602002602001015160ff161115801561306757505f86828151811061305d5761305c6148bd565b5b6020026020010151115b6130a6576040517f08c379a000000000000000000000000000000000000000000000000000000000815260040161309d9061529e565b60405180910390fd5b8581815181106130b9576130b86148bd565b5b6020026020010151836130cc9190614917565b925060118782815181106130e3576130e26148bd565b5b602002602001015160ff1610156130fb57600f6130fe565b60025b868281518110613111576131106148bd565b5b60200260200101516131239190614f0f565b8261312e9190614917565b91508080600101915050613017565b50600754828461314d9190614917565b111561318e576040517f08c379a000000000000000000000000000000000000000000000000000000000815260040161318590615306565b60405180910390fd5b7f000000000000000000000000000000000000000000000000000000000000000073ffffffffffffffffffffffffffffffffffffffff1663423bcb9f826040518263ffffffff1660e01b81526004016131e79190613f24565b602060405180830381865afa158015613202573d5f5f3e3d5ffd5b505050506040513d601f19601f820116820180604052508101906132269190614ba5565b613265576040517f08c379a000000000000000000000000000000000000000000000000000000000815260040161325c9061536e565b60405180910390fd5b7f000000000000000000000000000000000000000000000000000000000000000073ffffffffffffffffffffffffffffffffffffffff166310e15e6433846040518363ffffffff1660e01b81526004016132c0929190614af6565b5f604051808303815f87803b1580156132d7575f5ffd5b505af11580156132e9573d5f5f3e3d5ffd5b5050505081600b5f8282546132fe9190614917565b925050819055508160095f8282546133169190614917565b9250508190555081836133299190614917565b60025f3373ffffffffffffffffffffffffffffffffffffffff1673ffffffffffffffffffffffffffffffffffffffff1681526020019081526020015f205f8681526020019081526020015f20819055505f60405180606001604052804267ffffffffffffffff1681526020014867ffffffffffffffff1681526020014667ffffffffffffffff1681525090505f5f60055f3373ffffffffffffffffffffffffffffffffffffffff1673ffffffffffffffffffffffffffffffffffffffff1681526020019081526020015f205f8881526020019081526020015f20805490501490505f5f90505b8851811015613851575f60015f3373ffffffffffffffffffffffffffffffffffffffff1673ffffffffffffffffffffffffffffffffffffffff1681526020019081526020015f2080549050905060015f3373ffffffffffffffffffffffffffffffffffffffff1673ffffffffffffffffffffffffffffffffffffffff1681526020019081526020015f206040518061012001604052808c85815181106134b8576134b76148bd565b5b602002602001015160ff1681526020018b85815181106134db576134da6148bd565b5b602002602001015181526020018a81526020015f151581526020015f151581526020015f81526020015f60ff1681526020015f60ff1681526020015f1515815250908060018154018082558091505060019003905f5260205f2090600602015f909190919091505f820151815f015f6101000a81548160ff021916908360ff16021790555060208201518160010155604082015181600201556060820151816003015f6101000a81548160ff02191690831515021790555060808201518160030160016101000a81548160ff02191690831515021790555060a0820151816004015560c0820151816005015f6101000a81548160ff021916908360ff16021790555060e08201518160050160016101000a81548160ff021916908360ff1602179055506101008201518160050160026101000a81548160ff02191690831515021790555050508360035f3373ffffffffffffffffffffffffffffffffffffffff1673ffffffffffffffffffffffffffffffffffffffff1681526020019081526020015f205f8381526020019081526020015f205f820151815f015f6101000a81548167ffffffffffffffff021916908367ffffffffffffffff1602179055506020820151815f0160086101000a81548167ffffffffffffffff021916908367ffffffffffffffff1602179055506040820151815f0160106101000a81548167ffffffffffffffff021916908367ffffffffffffffff16021790555090505060055f3373ffffffffffffffffffffffffffffffffffffffff1673ffffffffffffffffffffffffffffffffffffffff1681526020019081526020015f205f8981526020019081526020015f2081908060018154018082558091505060019003905f5260205f20015f909190919091505560045f3373ffffffffffffffffffffffffffffffffffffffff1673ffffffffffffffffffffffffffffffffffffffff1681526020019081526020015f205f8154809291906137b690614977565b91905055503373ffffffffffffffffffffffffffffffffffffffff167ffc72f5d1bbb3e58b990487d2f10e45826d574e4478301772280f7ecb1372a2c0828c8581518110613807576138066148bd565b5b60200260200101518c8681518110613822576138216148bd565b5b60200260200101518c60405161383b949392919061538c565b60405180910390a250808060010191505061340f565b5080156138ba5760065f3373ffffffffffffffffffffffffffffffffffffffff1673ffffffffffffffffffffffffffffffffffffffff1681526020019081526020015f2086908060018154018082558091505060019003905f5260205f20015f90919091909150555b5050505050505050565b5f60055f8573ffffffffffffffffffffffffffffffffffffffff1673ffffffffffffffffffffffffffffffffffffffff1681526020019081526020015f205f8381526020019081526020015f2090505f5f90505b81805490508110156139e05783828281548110613938576139376148bd565b5b905f5260205f200154036139d3576001828054905061395791906153cf565b8110156139aa57816001838054905061397091906153cf565b81548110613981576139806148bd565b5b905f5260205f20015482828154811061399d5761399c6148bd565b5b905f5260205f2001819055505b818054806139bb576139ba615402565b5b600190038181905f5260205f20015f905590556139e0565b8080600101915050613918565b5060045f8573ffffffffffffffffffffffffffffffffffffffff1673ffffffffffffffffffffffffffffffffffffffff1681526020019081526020015f205f815480929190613a2e9061542f565b91905055505f818054905003613b4e575f60065f8673ffffffffffffffffffffffffffffffffffffffff1673ffffffffffffffffffffffffffffffffffffffff1681526020019081526020015f2090505f5f90505b8180549050811015613b4b5783828281548110613aa357613aa26148bd565b5b905f5260205f20015403613b3e5760018280549050613ac291906153cf565b811015613b15578160018380549050613adb91906153cf565b81548110613aec57613aeb6148bd565b5b905f5260205f200154828281548110613b0857613b076148bd565b5b905f5260205f2001819055505b81805480613b2657613b25615402565b5b600190038181905f5260205f20015f90559055613b4b565b8080600101915050613a83565b50505b50505050565b5f5f905081613caf576011855f015f9054906101000a900460ff1660ff1603613b99578280613b92575082158015613b915750613b9084613d08565b5b5b9050613cae565b6012855f015f9054906101000a900460ff1660ff1603613bcd5782158015613bc65750613bc584613d2e565b5b9050613cad565b6013855f015f9054906101000a900460ff1660ff1603613c015782158015613bfa5750613bf984613d54565b5b9050613cac565b6014855f015f9054906101000a900460ff1660ff1603613c3d578280613c36575082158015613c355750613c3484613d7a565b5b5b9050613cab565b6015855f015f9054906101000a900460ff1660ff1603613c715782158015613c6a5750613c6984613da0565b5b9050613caa565b6016855f015f9054906101000a900460ff1660ff1603613ca9578280613ca6575082158015613ca55750613ca484613dc6565b5b5b90505b5b5b5b5b5b5b8015613cf05760018560030160016101000a81548160ff02191690831515021790555060028560010154613ce39190614f0f565b8560040181905550613cfa565b5f85600401819055505b5050505050565b5f33905090565b5f600f8260ff1611158015613d2757506001808360ff166154aa901c16145b9050919050565b5f600f8260ff1611158015613d4d57506001808360ff1661ab54901c16145b9050919050565b5f600f8260ff1611158015613d7357506001808360ff16611e1e901c16145b9050919050565b5f600f8260ff1611158015613d9957506001808360ff1661e1e0901c16145b9050919050565b5f600f8260ff1611158015613dbf57506001808360ff166101fe901c16145b9050919050565b5f600f8260ff1611158015613de557506001808360ff1661fe00901c16145b9050919050565b5f5ffd5b5f5ffd5b5f73ffffffffffffffffffffffffffffffffffffffff82169050919050565b5f613e1d82613df4565b9050919050565b613e2d81613e13565b8114613e37575f5ffd5b50565b5f81359050613e4881613e24565b92915050565b5f5ffd5b5f5ffd5b5f5ffd5b5f5f83601f840112613e6f57613e6e613e4e565b5b8235905067ffffffffffffffff811115613e8c57613e8b613e52565b5b602083019150836020820283011115613ea857613ea7613e56565b5b9250929050565b5f5f5f60408486031215613ec657613ec5613dec565b5b5f613ed386828701613e3a565b935050602084013567ffffffffffffffff811115613ef457613ef3613df0565b5b613f0086828701613e5a565b92509250509250925092565b5f819050919050565b613f1e81613f0c565b82525050565b5f602082019050613f375f830184613f15565b92915050565b5f60208284031215613f5257613f51613dec565b5b5f613f5f84828501613e3a565b91505092915050565b613f7181613f0c565b8114613f7b575f5ffd5b50565b5f81359050613f8c81613f68565b92915050565b5f60208284031215613fa757613fa6613dec565b5b5f613fb484828501613f7e565b91505092915050565b5f819050919050565b5f613fe0613fdb613fd684613df4565b613fbd565b613df4565b9050919050565b5f613ff182613fc6565b9050919050565b5f61400282613fe7565b9050919050565b61401281613ff8565b82525050565b5f60208201905061402b5f830184614009565b92915050565b5f8115159050919050565b61404581614031565b82525050565b5f60208201905061405e5f83018461403c565b92915050565b5f61406e82613fe7565b9050919050565b61407e81614064565b82525050565b5f6020820190506140975f830184614075565b92915050565b5f81519050919050565b5f82825260208201905092915050565b5f819050602082019050919050565b6140cf81613f0c565b82525050565b5f6140e083836140c6565b60208301905092915050565b5f602082019050919050565b5f6141028261409d565b61410c81856140a7565b9350614117836140b7565b805f5b8381101561414757815161412e88826140d5565b9750614139836140ec565b92505060018101905061411a565b5085935050505092915050565b5f81519050919050565b5f82825260208201905092915050565b5f819050602082019050919050565b5f60ff82169050919050565b6141928161417d565b82525050565b5f6141a38383614189565b60208301905092915050565b5f602082019050919050565b5f6141c582614154565b6141cf818561415e565b93506141da8361416e565b805f5b8381101561420a5781516141f18882614198565b97506141fc836141af565b9250506001810190506141dd565b5085935050505092915050565b5f81519050919050565b5f82825260208201905092915050565b5f819050602082019050919050565b61424981614031565b82525050565b5f61425a8383614240565b60208301905092915050565b5f602082019050919050565b5f61427c82614217565b6142868185614221565b935061429183614231565b805f5b838110156142c15781516142a8888261424f565b97506142b383614266565b925050600181019050614294565b5085935050505092915050565b5f6080820190508181035f8301526142e681876140f8565b905081810360208301526142fa81866141bb565b9050818103604083015261430e81856141bb565b905081810360608301526143228184614272565b905095945050505050565b5f5f6040838503121561434357614342613dec565b5b5f61435085828601613e3a565b925050602061436185828601613f7e565b9150509250929050565b6143748161417d565b82525050565b5f6101208201905061438e5f83018c61436b565b61439b602083018b613f15565b6143a8604083018a613f15565b6143b5606083018961403c565b6143c2608083018861403c565b6143cf60a0830187613f15565b6143dc60c083018661436b565b6143e960e083018561436b565b6143f761010083018461403c565b9a9950505050505050505050565b61440e81613e13565b82525050565b5f6020820190506144275f830184614405565b92915050565b5f610120820190508181035f830152614446818c6141bb565b9050818103602083015261445a818b6140f8565b9050818103604083015261446e818a6140f8565b905081810360608301526144828189614272565b905081810360808301526144968188614272565b905081810360a08301526144aa81876140f8565b905081810360c08301526144be81866141bb565b905081810360e08301526144d281856141bb565b90508181036101008301526144e78184614272565b90509a9950505050505050505050565b5f5f83601f84011261450c5761450b613e4e565b5b8235905067ffffffffffffffff81111561452957614528613e52565b5b60208301915083602082028301111561454557614544613e56565b5b9250929050565b5f5f5f5f6040858703121561456457614563613dec565b5b5f85013567ffffffffffffffff81111561458157614580613df0565b5b61458d878288016144f7565b9450945050602085013567ffffffffffffffff8111156145b0576145af613df0565b5b6145bc87828801613e5a565b925092505092959194509250565b5f67ffffffffffffffff82169050919050565b6145e6816145ca565b82525050565b5f6060820190506145ff5f8301866145dd565b61460c60208301856145dd565b61461960408301846145dd565b949350505050565b61462a8161417d565b8114614634575f5ffd5b50565b5f8135905061464581614621565b92915050565b5f5f6040838503121561466157614660613dec565b5b5f61466e85828601614637565b925050602061467f85828601613f7e565b9150509250929050565b5f819050919050565b61469b81614689565b82525050565b5f6080820190506146b45f830187613f15565b6146c16020830186613f15565b6146ce6040830185614692565b6146db6060830184613f15565b95945050505050565b5f5f5f606084860312156146fb576146fa613dec565b5b5f61470886828701613e3a565b935050602061471986828701613f7e565b925050604061472a86828701613f7e565b9150509250925092565b5f82825260208201905092915050565b7f4e6f2045544820746f20726573637565000000000000000000000000000000005f82015250565b5f614778601083614734565b915061478382614744565b602082019050919050565b5f6020820190508181035f8301526147a58161476c565b9050919050565b5f81905092915050565b50565b5f6147c45f836147ac565b91506147cf826147b6565b5f82019050919050565b5f6147e3826147b9565b9150819050919050565b7f455448207472616e73666572206661696c6564000000000000000000000000005f82015250565b5f614821601383614734565b915061482c826147ed565b602082019050919050565b5f6020820190508181035f83015261484e81614815565b9050919050565b7f4e6f7420706175736564000000000000000000000000000000000000000000005f82015250565b5f614889600a83614734565b915061489482614855565b602082019050919050565b5f6020820190508181035f8301526148b68161487d565b9050919050565b7f4e487b71000000000000000000000000000000000000000000000000000000005f52603260045260245ffd5b7f4e487b71000000000000000000000000000000000000000000000000000000005f52601160045260245ffd5b5f61492182613f0c565b915061492c83613f0c565b9250828201905080821115614944576149436148ea565b5b92915050565b7f4e487b71000000000000000000000000000000000000000000000000000000005f52604160045260245ffd5b5f61498182613f0c565b91507fffffffffffffffffffffffffffffffffffffffffffffffffffffffffffffffff82036149b3576149b26148ea565b5b600182019050919050565b7f416c7265616479207061757365640000000000000000000000000000000000005f82015250565b5f6149f2600e83614734565b91506149fd826149be565b602082019050919050565b5f6020820190508181035f830152614a1f816149e6565b9050919050565b7f496e76616c696420706172616d730000000000000000000000000000000000005f82015250565b5f614a5a600e83614734565b9150614a6582614a26565b602082019050919050565b5f6020820190508181035f830152614a8781614a4e565b9050919050565b7f43616e6e6f74207265736375652062657474696e6720746f6b656e00000000005f82015250565b5f614ac2601b83614734565b9150614acd82614a8e565b602082019050919050565b5f6020820190508181035f830152614aef81614ab6565b9050919050565b5f604082019050614b095f830185614405565b614b166020830184613f15565b9392505050565b5f81519050919050565b8281835e5f83830152505050565b5f614b3f82614b1d565b614b4981856147ac565b9350614b59818560208601614b27565b80840191505092915050565b5f614b708284614b35565b915081905092915050565b614b8481614031565b8114614b8e575f5ffd5b50565b5f81519050614b9f81614b7b565b92915050565b5f60208284031215614bba57614bb9613dec565b5b5f614bc784828501614b91565b91505092915050565b7f5472616e73666572206661696c656400000000000000000000000000000000005f82015250565b5f614c04600f83614734565b9150614c0f82614bd0565b602082019050919050565b5f6020820190508181035f830152614c3181614bf8565b9050919050565b7f50617573656400000000000000000000000000000000000000000000000000005f82015250565b5f614c6c600683614734565b9150614c7782614c38565b602082019050919050565b5f6020820190508181035f830152614c9981614c60565b9050919050565b7f496e76616c696420696e646578000000000000000000000000000000000000005f82015250565b5f614cd4600d83614734565b9150614cdf82614ca0565b602082019050919050565b5f6020820190508181035f830152614d0181614cc8565b9050919050565b5f614d1282614689565b9150614d1d83614689565b925082820390508181125f8412168282135f851215161715614d4257614d416148ea565b5b92915050565b7f496e76616c6964206c656e6774680000000000000000000000000000000000005f82015250565b5f614d7c600e83614734565b9150614d8782614d48565b602082019050919050565b5f6020820190508181035f830152614da981614d70565b9050919050565b7f416c726561647920736574746c656400000000000000000000000000000000005f82015250565b5f614de4600f83614734565b9150614def82614db0565b602082019050919050565b5f6020820190508181035f830152614e1181614dd8565b9050919050565b7f43616e6e6f7420736574746c65207965740000000000000000000000000000005f82015250565b5f614e4c601183614734565b9150614e5782614e18565b602082019050919050565b5f6020820190508181035f830152614e7981614e40565b9050919050565b5f604082019050614e935f830185613f15565b614ea0602083018461436b565b9392505050565b7f426c6f636b2068617368206e6f7420617661696c61626c6500000000000000005f82015250565b5f614edb601883614734565b9150614ee682614ea7565b602082019050919050565b5f6020820190508181035f830152614f0881614ecf565b9050919050565b5f614f1982613f0c565b9150614f2483613f0c565b9250828202614f3281613f0c565b91508282048414831517614f4957614f486148ea565b5b5092915050565b5f60a082019050614f635f830188613f15565b614f70602083018761403c565b614f7d604083018661436b565b614f8a606083018561436b565b614f976080830184613f15565b9695505050505050565b7f426c6f636b20756e617661696c61626c650000000000000000000000000000005f82015250565b5f614fd5601183614734565b9150614fe082614fa1565b602082019050919050565b5f6020820190508181035f83015261500281614fc9565b9050919050565b5f819050919050565b5f819050919050565b61502c61502782615009565b615012565b82525050565b5f8160c01b9050919050565b5f61504882615032565b9050919050565b61506061505b826145ca565b61503e565b82525050565b5f819050919050565b61508061507b82613f0c565b615066565b82525050565b5f8160601b9050919050565b5f61509c82615086565b9050919050565b5f6150ad82615092565b9050919050565b6150c56150c082613e13565b6150a3565b82525050565b5f6150d582613df4565b9050919050565b5f6150e682615092565b9050919050565b6150fe6150f9826150cb565b6150dc565b82525050565b5f61510f828a61501b565b60208201915061511f828961504f565b60088201915061512f828861504f565b60088201915061513f828761504f565b60088201915061514f828661506f565b60208201915061515f82856150b4565b60148201915061516f82846150ed565b60148201915081905098975050505050505050565b7f496e76616c6964206172726179730000000000000000000000000000000000005f82015250565b5f6151b8600e83614734565b91506151c382615184565b602082019050919050565b5f6020820190508181035f8301526151e5816151ac565b9050919050565b7f4d75737420736574746c6520616c6c20626574732066697273740000000000005f82015250565b5f615220601a83614734565b915061522b826151ec565b602082019050919050565b5f6020820190508181035f83015261524d81615214565b9050919050565b7f496e76616c6964206265740000000000000000000000000000000000000000005f82015250565b5f615288600b83614734565b915061529382615254565b602082019050919050565b5f6020820190508181035f8301526152b58161527c565b9050919050565b7f45786365656473207370696e206c696d697400000000000000000000000000005f82015250565b5f6152f0601283614734565b91506152fb826152bc565b602082019050919050565b5f6020820190508181035f83015261531d816152e4565b9050919050565b7f496e73756666696369656e742062616e6b726f6c6c00000000000000000000005f82015250565b5f615358601583614734565b915061536382615324565b602082019050919050565b5f6020820190508181035f8301526153858161534c565b9050919050565b5f60808201905061539f5f830187613f15565b6153ac602083018661436b565b6153b96040830185613f15565b6153c66060830184613f15565b95945050505050565b5f6153d982613f0c565b91506153e483613f0c565b92508282039050818111156153fc576153fb6148ea565b5b92915050565b7f4e487b71000000000000000000000000000000000000000000000000000000005f52603160045260245ffd5b5f61543982613f0c565b91505f820361544b5761544a6148ea565b5b60018203905091905056fea26469706673582212200eb0f8653acb4e2486f2beb45d084c2dcb2be70fdea3319f0586af6d59b8316664736f6c634300081e0033",
        "linkReferences": {}
    },
    "methodIdentifiers": {
        "BLOCKS_DELAY()": "243e1239",
        "INSIDE_BET_PAYOUT()": "acece2d6",
        "OUTSIDE_BET_PAYOUT()": "f1868167",
        "betBlockData(address,uint256)": "c68f1356",
        "bettingToken()": "43425e88",
        "canSettleBet(address,uint256)": "e4ecf257",
        "getAllUserBets(address)": "ba2abf26",
        "getGameAnalytics()": "e1d5cd14",
        "getSettleableBets(address)": "70bb44f6",
        "getUserBet(address,uint256)": "de87b07d",
        "getUserBetCount(address)": "b624010a",
        "getUserUnsettledBetCount(address)": "2664c25a",
        "liquidityPool()": "665a11ca",
        "maxSpinAmount()": "ef9b8f7e",
        "owner()": "8da5cb5b",
        "pause()": "8456cb59",
        "paused()": "5c975abb",
        "placeBet(uint8,uint256)": "dcb3b30e",
        "placeMultipleBets(uint8[],uint256[])": "c14635ed",
        "renounceOwnership()": "715018a6",
        "rescueERC20(address,uint256)": "8cd4426d",
        "rescueETH()": "20800a00",
        "setMaxSpinAmount(uint256)": "28ec5bc0",
        "settleBet(address,uint256)": "b2e54ea9",
        "settleMultipleBets(address,uint256[])": "1874c640",
        "totalGameBetVolume()": "f222b92e",
        "totalGameInflows()": "7f154455",
        "totalGameOutflows()": "ef529dff",
        "transferOwnership(address)": "f2fde38b",
        "unpause()": "3f4ba83a",
        "unsettledBetsByBlock(address,uint256,uint256)": "ff923270",
        "userBets(address,uint256)": "8068aa68",
        "userSpinTotalWager(address,uint256)": "c9d9760e",
        "userUnsettledBetCount(address)": "2f2fa776",
        "userUnsettledTargetBlocks(address,uint256)": "b59d221f"
    },
    "id": 33
}